{"abi":[{"type":"function","name":"EMPTY_BYTES","inputs":[],"outputs":[{"name":"","type":"bytes","internalType":"bytes"}],"stateMutability":"view"}],"bytecode":{"object":"0x60e7610033600b8282823980515f1a607314602757634e487b7160e01b5f525f60045260245ffd5b305f52607381538281f3fe73000000000000000000000000000000000000000030146080604052600436106032575f3560e01c8063036945b7146036575b5f80fd5b604a60405180602001604052805f81525081565b60405160559190605e565b60405180910390f35b602081525f82518060208401528060208501604085015e5f6040828501015260407fffffffffffffffffffffffffffffffffffffffffffffffffffffffffffffffe0601f8301168401019150509291505056fea2646970667358221220a40ca7fdced9644aa236da958028fa9bb3f0ae102c62128d6a017ec1e07fb1f264736f6c634300081a0033","linkReferences":{}},"methodIdentifiers":{"EMPTY_BYTES()":"036945b7"},"id":62}