{"abi":[{"type":"constructor","inputs":[{"name":"royaltyModule","type":"address","internalType":"address"},{"name":"ipGraphAcl","type":"address","internalType":"address"}],"stateMutability":"nonpayable"},{"type":"function","name":"IP_GRAPH","inputs":[],"outputs":[{"name":"","type":"address","internalType":"address"}],"stateMutability":"view"},{"type":"function","name":"IP_GRAPH_ACL","inputs":[],"outputs":[{"name":"","type":"address","internalType":"contract IPGraphACL"}],"stateMutability":"view"},{"type":"function","name":"ROYALTY_MODULE","inputs":[],"outputs":[{"name":"","type":"address","internalType":"contract IRoyaltyModule"}],"stateMutability":"view"},{"type":"function","name":"UPGRADE_INTERFACE_VERSION","inputs":[],"outputs":[{"name":"","type":"string","internalType":"string"}],"stateMutability":"view"},{"type":"function","name":"__ProtocolPausable_init","inputs":[{"name":"accessManager","type":"address","internalType":"address"}],"outputs":[],"stateMutability":"nonpayable"},{"type":"function","name":"authority","inputs":[],"outputs":[{"name":"","type":"address","internalType":"address"}],"stateMutability":"view"},{"type":"function","name":"getPolicyRoyalty","inputs":[{"name":"ipId","type":"address","internalType":"address"},{"name":"ancestorIpId","type":"address","internalType":"address"}],"outputs":[{"name":"","type":"uint32","internalType":"uint32"}],"stateMutability":"nonpayable"},{"type":"function","name":"getPolicyRoyaltyStack","inputs":[{"name":"ipId","type":"address","internalType":"address"}],"outputs":[{"name":"","type":"uint32","internalType":"uint32"}],"stateMutability":"view"},{"type":"function","name":"getPolicyRtsRequiredToLink","inputs":[{"name":"ipId","type":"address","internalType":"address"},{"name":"licensePercent","type":"uint32","internalType":"uint32"}],"outputs":[{"name":"","type":"uint32","internalType":"uint32"}],"stateMutability":"view"},{"type":"function","name":"getTransferredTokens","inputs":[{"name":"ipId","type":"address","internalType":"address"},{"name":"ancestorIpId","type":"address","internalType":"address"},{"name":"token","type":"address","internalType":"address"}],"outputs":[{"name":"","type":"uint256","internalType":"uint256"}],"stateMutability":"view"},{"type":"function","name":"initialize","inputs":[{"name":"accessManager","type":"address","internalType":"address"}],"outputs":[],"stateMutability":"nonpayable"},{"type":"function","name":"isConsumingScheduledOp","inputs":[],"outputs":[{"name":"","type":"bytes4","internalType":"bytes4"}],"stateMutability":"view"},{"type":"function","name":"isSupportGroup","inputs":[],"outputs":[{"name":"","type":"bool","internalType":"bool"}],"stateMutability":"view"},{"type":"function","name":"onLicenseMinting","inputs":[{"name":"ipId","type":"address","internalType":"address"},{"name":"licensePercent","type":"uint32","internalType":"uint32"},{"name":"","type":"bytes","internalType":"bytes"}],"outputs":[],"stateMutability":"nonpayable"},{"type":"function","name":"onLinkToParents","inputs":[{"name":"ipId","type":"address","internalType":"address"},{"name":"parentIpIds","type":"address[]","internalType":"address[]"},{"name":"licenseRoyaltyPolicies","type":"address[]","internalType":"address[]"},{"name":"licensesPercent","type":"uint32[]","internalType":"uint32[]"},{"name":"","type":"bytes","internalType":"bytes"}],"outputs":[{"name":"newRoyaltyStackLAP","type":"uint32","internalType":"uint32"}],"stateMutability":"nonpayable"},{"type":"function","name":"pause","inputs":[],"outputs":[],"stateMutability":"nonpayable"},{"type":"function","name":"paused","inputs":[],"outputs":[{"name":"","type":"bool","internalType":"bool"}],"stateMutability":"view"},{"type":"function","name":"proxiableUUID","inputs":[],"outputs":[{"name":"","type":"bytes32","internalType":"bytes32"}],"stateMutability":"view"},{"type":"function","name":"setAuthority","inputs":[{"name":"newAuthority","type":"address","internalType":"address"}],"outputs":[],"stateMutability":"nonpayable"},{"type":"function","name":"transferToVault","inputs":[{"name":"ipId","type":"address","internalType":"address"},{"name":"ancestorIpId","type":"address","internalType":"address"},{"name":"token","type":"address","internalType":"address"}],"outputs":[{"name":"","type":"uint256","internalType":"uint256"}],"stateMutability":"nonpayable"},{"type":"function","name":"unpause","inputs":[],"outputs":[],"stateMutability":"nonpayable"},{"type":"function","name":"upgradeToAndCall","inputs":[{"name":"newImplementation","type":"address","internalType":"address"},{"name":"data","type":"bytes","internalType":"bytes"}],"outputs":[],"stateMutability":"payable"},{"type":"event","name":"AuthorityUpdated","inputs":[{"name":"authority","type":"address","indexed":false,"internalType":"address"}],"anonymous":false},{"type":"event","name":"Initialized","inputs":[{"name":"version","type":"uint64","indexed":false,"internalType":"uint64"}],"anonymous":false},{"type":"event","name":"Paused","inputs":[{"name":"account","type":"address","indexed":false,"internalType":"address"}],"anonymous":false},{"type":"event","name":"RevenueTransferredToVault","inputs":[{"name":"ipId","type":"address","indexed":false,"internalType":"address"},{"name":"ancestorIpId","type":"address","indexed":false,"internalType":"address"},{"name":"token","type":"address","indexed":false,"internalType":"address"},{"name":"amount","type":"uint256","indexed":false,"internalType":"uint256"}],"anonymous":false},{"type":"event","name":"Unpaused","inputs":[{"name":"account","type":"address","indexed":false,"internalType":"address"}],"anonymous":false},{"type":"event","name":"Upgraded","inputs":[{"name":"implementation","type":"address","indexed":true,"internalType":"address"}],"anonymous":false},{"type":"error","name":"AccessManagedInvalidAuthority","inputs":[{"name":"authority","type":"address","internalType":"address"}]},{"type":"error","name":"AccessManagedRequiredDelay","inputs":[{"name":"caller","type":"address","internalType":"address"},{"name":"delay","type":"uint32","internalType":"uint32"}]},{"type":"error","name":"AccessManagedUnauthorized","inputs":[{"name":"caller","type":"address","internalType":"address"}]},{"type":"error","name":"AddressEmptyCode","inputs":[{"name":"target","type":"address","internalType":"address"}]},{"type":"error","name":"ERC1967InvalidImplementation","inputs":[{"name":"implementation","type":"address","internalType":"address"}]},{"type":"error","name":"ERC1967NonPayable","inputs":[]},{"type":"error","name":"EnforcedPause","inputs":[]},{"type":"error","name":"ExpectedPause","inputs":[]},{"type":"error","name":"FailedCall","inputs":[]},{"type":"error","name":"InvalidInitialization","inputs":[]},{"type":"error","name":"NotInitializing","inputs":[]},{"type":"error","name":"ReentrancyGuardReentrantCall","inputs":[]},{"type":"error","name":"RoyaltyPolicyLAP__AboveMaxPercent","inputs":[]},{"type":"error","name":"RoyaltyPolicyLAP__CallFailed","inputs":[]},{"type":"error","name":"RoyaltyPolicyLAP__NotRoyaltyModule","inputs":[]},{"type":"error","name":"RoyaltyPolicyLAP__ZeroAccessManager","inputs":[]},{"type":"error","name":"RoyaltyPolicyLAP__ZeroClaimableRoyalty","inputs":[]},{"type":"error","name":"RoyaltyPolicyLAP__ZeroIPGraphACL","inputs":[]},{"type":"error","name":"RoyaltyPolicyLAP__ZeroRoyaltyModule","inputs":[]},{"type":"error","name":"SafeERC20FailedOperation","inputs":[{"name":"token","type":"address","internalType":"address"}]},{"type":"error","name":"UUPSUnauthorizedCallContext","inputs":[]},{"type":"error","name":"UUPSUnsupportedProxiableUUID","inputs":[{"name":"slot","type":"bytes32","internalType":"bytes32"}]}],"bytecode":{"object":"0x60e060405230608052348015610013575f80fd5b50604051612fc1380380612fc18339810160408190526100329161016f565b6001600160a01b03821661005957604051630a72e53160e01b815260040160405180910390fd5b6001600160a01b03811661008057604051633e0a39af60e11b815260040160405180910390fd5b6001600160a01b0380831660a052811660c05261009b6100a2565b50506101a0565b7ff0c57e16840df040f15088dc2f81fe391c3923bec73e23a9662efc9c229c6a00805468010000000000000000900460ff16156100f25760405163f92ee8a960e01b815260040160405180910390fd5b80546001600160401b03908116146101515780546001600160401b0319166001600160401b0390811782556040519081527fc7f505b2f371ae2175ee4913f4499e1f2633a7b5936321eed1cdaeb6115181d29060200160405180910390a15b50565b80516001600160a01b038116811461016a575f80fd5b919050565b5f8060408385031215610180575f80fd5b61018983610154565b915061019760208401610154565b90509250929050565b60805160a05160c051612dcd6101f45f395f61045401525f818161033501528181610751015281816107ab01528181610d0d015261128101525f81816118fd015281816119260152611b480152612dcd5ff3fe60806040526004361061016d575f3560e01c806373b7ce28116100c6578063b6a92a531161007c578063c4d66de811610057578063c4d66de8146104bf578063e9f89904146104de578063f2197fae146104fd575f80fd5b8063b6a92a5314610424578063b910925814610443578063bf7e214f14610476575f80fd5b80638456cb59116100ac5780638456cb59146103765780638fb360371461038a578063ad3cb1cc146103cf575f80fd5b806373b7ce28146103245780637a9e5e4b14610357575f80fd5b8063404bf58f1161012657806352d1902d1161010157806352d1902d146102c25780635c975abb146102d65780636b9ea4f6146102ea575f80fd5b8063404bf58f146102715780634b02e1c0146102905780634f1ef286146102af575f80fd5b80631503ccfa116101565780631503ccfa1461021e578063198fdd981461023c5780633f4ba83a1461025d575f80fd5b806303b38a5014610171578063093f30a2146101a3575b5f80fd5b34801561017c575f80fd5b5061019061018b36600461262b565b61051e565b6040519081526020015b60405180910390f35b3480156101ae575f80fd5b506102096101bd366004612673565b73ffffffffffffffffffffffffffffffffffffffff165f9081527f0c915ba68e2c4e37f19454bb13066f18f9db418fcefbf3c585b4b7d0fb0e0600602052604090205463ffffffff1690565b60405163ffffffff909116815260200161019a565b348015610229575f80fd5b505f5b604051901515815260200161019a565b348015610247575f80fd5b5061025b610256366004612673565b610581565b005b348015610268575f80fd5b5061025b610707565b34801561027c575f80fd5b5061020961028b36600461268e565b61071d565b34801561029b575f80fd5b5061025b6102aa36600461271b565b610731565b61025b6102bd3660046127f8565b61094c565b3480156102cd575f80fd5b5061019061096b565b3480156102e1575f80fd5b5061022c610999565b3480156102f5575f80fd5b506102ff61010181565b60405173ffffffffffffffffffffffffffffffffffffffff909116815260200161019a565b34801561032f575f80fd5b506102ff7f000000000000000000000000000000000000000000000000000000000000000081565b348015610362575f80fd5b5061025b610371366004612673565b6109ca565b348015610381575f80fd5b5061025b610afb565b348015610395575f80fd5b5061039e610b0c565b6040517fffffffff00000000000000000000000000000000000000000000000000000000909116815260200161019a565b3480156103da575f80fd5b506104176040518060400160405280600581526020017f352e302e3000000000000000000000000000000000000000000000000000000081525081565b60405161019a91906128bd565b34801561042f575f80fd5b5061019061043e36600461262b565b610b7f565b34801561044e575f80fd5b506102ff7f000000000000000000000000000000000000000000000000000000000000000081565b348015610481575f80fd5b507ff3177357ab46d8af007ab3fdb9af81da189e1068fefdc0073dca88a2cab40a005473ffffffffffffffffffffffffffffffffffffffff166102ff565b3480156104ca575f80fd5b5061025b6104d9366004612673565b6110ee565b3480156104e9575f80fd5b506102096104f83660046129da565b611260565b348015610508575f80fd5b50610209610517366004612ab5565b5f92915050565b73ffffffffffffffffffffffffffffffffffffffff8381165f9081527f0c915ba68e2c4e37f19454bb13066f18f9db418fcefbf3c585b4b7d0fb0e06026020908152604080832086851684528252808320938516835292905220545b9392505050565b7ff0c57e16840df040f15088dc2f81fe391c3923bec73e23a9662efc9c229c6a00805468010000000000000000810460ff16159067ffffffffffffffff165f811580156105cb5750825b90505f8267ffffffffffffffff1660011480156105e75750303b155b9050811580156105f5575080155b1561062c576040517ff92ee8a900000000000000000000000000000000000000000000000000000000815260040160405180910390fd5b84547fffffffffffffffffffffffffffffffffffffffffffffffff0000000000000000166001178555831561068d5784547fffffffffffffffffffffffffffffffffffffffffffffff00ffffffffffffffff16680100000000000000001785555b6106968661143a565b61069e61144e565b83156106ff5784547fffffffffffffffffffffffffffffffffffffffffffffff00ffffffffffffffff168555604051600181527fc7f505b2f371ae2175ee4913f4499e1f2633a7b5936321eed1cdaeb6115181d29060200160405180910390a15b505050505050565b610713335b5f3661145e565b61071b61164e565b565b5f61072883836116eb565b90505b92915050565b61073961183e565b3373ffffffffffffffffffffffffffffffffffffffff7f000000000000000000000000000000000000000000000000000000000000000016146107a8576040517f293581f000000000000000000000000000000000000000000000000000000000815260040160405180910390fd5b5f7f000000000000000000000000000000000000000000000000000000000000000090508073ffffffffffffffffffffffffffffffffffffffff166359a153ba6040518163ffffffff1660e01b8152600401602060405180830381865afa158015610815573d5f803e3d5ffd5b505050506040513d601f19601f820116820180604052508101906108399190612ae1565b6040517f1b785d7600000000000000000000000000000000000000000000000000000000815273ffffffffffffffffffffffffffffffffffffffff878116600483015263ffffffff9290921691869190841690631b785d7690602401602060405180830381865afa1580156108b0573d5f803e3d5ffd5b505050506040513d601f19601f820116820180604052508101906108d49190612ae1565b6108de9190612b29565b63ffffffff16111561091c576040517f3701d71700000000000000000000000000000000000000000000000000000000815260040160405180910390fd5b5061094660017f9b779b17422d0df92223018b32b4d1fa46e071723d6817e2486d003becc55f0055565b50505050565b6109546118e5565b61095d826119e9565b61096782826119f2565b5050565b5f610974611b30565b507f360894a13ba1a3210667c828492db98dca3e2076cc3735a920a3ca505d382bbc90565b5f6109c57fcd5ed15c6e187e77e9aee88184c21f4f2182ab5827cb3b7e07fbedcd63f033005460ff1690565b905090565b33610a097ff3177357ab46d8af007ab3fdb9af81da189e1068fefdc0073dca88a2cab40a005473ffffffffffffffffffffffffffffffffffffffff1690565b73ffffffffffffffffffffffffffffffffffffffff168173ffffffffffffffffffffffffffffffffffffffff1614610a8a576040517f068ca9d800000000000000000000000000000000000000000000000000000000815273ffffffffffffffffffffffffffffffffffffffff821660048201526024015b60405180910390fd5b8173ffffffffffffffffffffffffffffffffffffffff163b5f03610af2576040517fc2f31e5e00000000000000000000000000000000000000000000000000000000815273ffffffffffffffffffffffffffffffffffffffff83166004820152602401610a81565b61096782611b9f565b610b043361070c565b61071b611c37565b7ff3177357ab46d8af007ab3fdb9af81da189e1068fefdc0073dca88a2cab40a0080545f919074010000000000000000000000000000000000000000900460ff16610b57575f610b79565b7f8fb36037000000000000000000000000000000000000000000000000000000005b91505090565b5f610b88611cb0565b73ffffffffffffffffffffffffffffffffffffffff8481165f9081527f0c915ba68e2c4e37f19454bb13066f18f9db418fcefbf3c585b4b7d0fb0e0601602090815260408083209387168352929052908120547f0c915ba68e2c4e37f19454bb13066f18f9db418fcefbf3c585b4b7d0fb0e06009163ffffffff90911690819003610cba57610c1786866116eb565b90508063ffffffff165f03610c58576040517f5f31e08300000000000000000000000000000000000000000000000000000000815260040160405180910390fd5b73ffffffffffffffffffffffffffffffffffffffff8681165f908152600184016020908152604080832093891683529290522080547fffffffffffffffffffffffffffffffffffffffffffffffffffffffff000000001663ffffffff83161790555b6040517f7d2434bd00000000000000000000000000000000000000000000000000000000815273ffffffffffffffffffffffffffffffffffffffff878116600483015285811660248301523060448301527f0000000000000000000000000000000000000000000000000000000000000000915f91831690637d2434bd90606401602060405180830381865afa158015610d56573d5f803e3d5ffd5b505050506040513d601f19601f82011682018060405250810190610d7a9190612b45565b90505f8273ffffffffffffffffffffffffffffffffffffffff166359a153ba6040518163ffffffff1660e01b8152600401602060405180830381865afa158015610dc6573d5f803e3d5ffd5b505050506040513d601f19601f82011682018060405250810190610dea9190612ae1565b63ffffffff168463ffffffff1683610e029190612b5c565b610e0c9190612b73565b73ffffffffffffffffffffffffffffffffffffffff808b165f90815260028801602090815260408083208d851684528252808320938c16835292905290812054919250610eed610e5c8385612bab565b6040517f70a0823100000000000000000000000000000000000000000000000000000000815230600482015273ffffffffffffffffffffffffffffffffffffffff8c16906370a0823190602401602060405180830381865afa158015610ec4573d5f803e3d5ffd5b505050506040513d601f19601f82011682018060405250810190610ee89190612b45565b611cef565b73ffffffffffffffffffffffffffffffffffffffff808d165f90815260028a01602090815260408083208f851684528252808320938e16835292905290812080549293508392909190610f41908490612bbe565b90915550506040517f7a112e7900000000000000000000000000000000000000000000000000000000815273ffffffffffffffffffffffffffffffffffffffff8b811660048301525f9190871690637a112e7990602401602060405180830381865afa158015610fb3573d5f803e3d5ffd5b505050506040513d601f19601f82011682018060405250810190610fd79190612bd1565b6040517fb8205bf200000000000000000000000000000000000000000000000000000000815273ffffffffffffffffffffffffffffffffffffffff8c81166004830152602482018590529192509082169063b8205bf2906044015f604051808303815f87803b158015611048575f80fd5b505af115801561105a573d5f803e3d5ffd5b506110809250505073ffffffffffffffffffffffffffffffffffffffff8b168284611cfe565b6040805173ffffffffffffffffffffffffffffffffffffffff8e811682528d811660208301528c16818301526060810184905290517f14982e2741f58e67b15cc2b261060df06905979ab9503b9d7e58ac44c7e3a32e9181900360800190a1509a9950505050505050505050565b7ff0c57e16840df040f15088dc2f81fe391c3923bec73e23a9662efc9c229c6a00805468010000000000000000810460ff16159067ffffffffffffffff165f811580156111385750825b90505f8267ffffffffffffffff1660011480156111545750303b155b905081158015611162575080155b15611199576040517ff92ee8a900000000000000000000000000000000000000000000000000000000815260040160405180910390fd5b84547fffffffffffffffffffffffffffffffffffffffffffffffff000000000000000016600117855583156111fa5784547fffffffffffffffffffffffffffffffffffffffffffffff00ffffffffffffffff16680100000000000000001785555b73ffffffffffffffffffffffffffffffffffffffff8616611247576040517fe7e19e8200000000000000000000000000000000000000000000000000000000815260040160405180910390fd5b61125086610581565b611258611d8b565b61069e611d9b565b5f61126961183e565b3373ffffffffffffffffffffffffffffffffffffffff7f000000000000000000000000000000000000000000000000000000000000000016146112d8576040517f293581f000000000000000000000000000000000000000000000000000000000815260040160405180910390fd5b5f5b8781101561138d573073ffffffffffffffffffffffffffffffffffffffff1687828151811061130b5761130b612bec565b602002602001015173ffffffffffffffffffffffffffffffffffffffff1603611385576113858a8a8a8481811061134457611344612bec565b90506020020160208101906113599190612673565b88888581811061136b5761136b612bec565b90506020020160208101906113809190612c19565b611da3565b6001016112da565b5061139789611eea565b73ffffffffffffffffffffffffffffffffffffffff8a165f9081527f0c915ba68e2c4e37f19454bb13066f18f9db418fcefbf3c585b4b7d0fb0e06006020526040902080547fffffffffffffffffffffffffffffffffffffffffffffffffffffffff000000001663ffffffff831617905560017f9b779b17422d0df92223018b32b4d1fa46e071723d6817e2486d003becc55f0055905098975050505050505050565b611442612034565b61144b8161209b565b50565b611456612034565b61071b6120ac565b7ff3177357ab46d8af007ab3fdb9af81da189e1068fefdc0073dca88a2cab40a005f806114df6114c27ff3177357ab46d8af007ab3fdb9af81da189e1068fefdc0073dca88a2cab40a005473ffffffffffffffffffffffffffffffffffffffff1690565b87306114d160045f8a8c612c34565b6114da91612c5b565b6120fd565b91509150816106ff5763ffffffff8116156116045782547fffffffffffffffffffffff00ffffffffffffffffffffffffffffffffffffffff167401000000000000000000000000000000000000000017835561156f7ff3177357ab46d8af007ab3fdb9af81da189e1068fefdc0073dca88a2cab40a005473ffffffffffffffffffffffffffffffffffffffff1690565b73ffffffffffffffffffffffffffffffffffffffff166394c7d7ee8787876040518463ffffffff1660e01b81526004016115ab93929190612cc1565b5f604051808303815f87803b1580156115c2575f80fd5b505af11580156115d4573d5f803e3d5ffd5b505084547fffffffffffffffffffffff00ffffffffffffffffffffffffffffffffffffffff168555506106ff9050565b6040517f068ca9d800000000000000000000000000000000000000000000000000000000815273ffffffffffffffffffffffffffffffffffffffff87166004820152602401610a81565b611656612276565b7fcd5ed15c6e187e77e9aee88184c21f4f2182ab5827cb3b7e07fbedcd63f0330080547fffffffffffffffffffffffffffffffffffffffffffffffffffffffffffffff001681557f5db9ee0a495bf2e6ff9c91a7834c1ba4fdd244a5e8aa4e537bd38aeae4b073aa335b60405173ffffffffffffffffffffffffffffffffffffffff909116815260200160405180910390a150565b60405173ffffffffffffffffffffffffffffffffffffffff8381166024830152821660448201525f60648201819052908190819061010190608401604080517fffffffffffffffffffffffffffffffffffffffffffffffffffffffffffffffe08184030181529181526020820180517bffffffffffffffffffffffffffffffffffffffffffffffffffffffff167fa987a48100000000000000000000000000000000000000000000000000000000179052516117a79190612d2a565b5f604051808303815f865af19150503d805f81146117e0576040519150601f19603f3d011682016040523d82523d5f602084013e6117e5565b606091505b509150915081611821576040517f7d844d4300000000000000000000000000000000000000000000000000000000815260040160405180910390fd5b808060200190518101906118359190612b45565b95945050505050565b7f9b779b17422d0df92223018b32b4d1fa46e071723d6817e2486d003becc55f0080547ffffffffffffffffffffffffffffffffffffffffffffffffffffffffffffffffe016118b9576040517f3ee5aeb500000000000000000000000000000000000000000000000000000000815260040160405180910390fd5b60029055565b60017f9b779b17422d0df92223018b32b4d1fa46e071723d6817e2486d003becc55f0055565b3073ffffffffffffffffffffffffffffffffffffffff7f00000000000000000000000000000000000000000000000000000000000000001614806119b257507f000000000000000000000000000000000000000000000000000000000000000073ffffffffffffffffffffffffffffffffffffffff166119997f360894a13ba1a3210667c828492db98dca3e2076cc3735a920a3ca505d382bbc5473ffffffffffffffffffffffffffffffffffffffff1690565b73ffffffffffffffffffffffffffffffffffffffff1614155b1561071b576040517fe07c8dba00000000000000000000000000000000000000000000000000000000815260040160405180910390fd5b61144b3361070c565b8173ffffffffffffffffffffffffffffffffffffffff166352d1902d6040518163ffffffff1660e01b8152600401602060405180830381865afa925050508015611a77575060408051601f3d9081017fffffffffffffffffffffffffffffffffffffffffffffffffffffffffffffffe0168201909252611a7491810190612b45565b60015b611ac5576040517f4c9c8ce300000000000000000000000000000000000000000000000000000000815273ffffffffffffffffffffffffffffffffffffffff83166004820152602401610a81565b7f360894a13ba1a3210667c828492db98dca3e2076cc3735a920a3ca505d382bbc8114611b21576040517faa1d49a400000000000000000000000000000000000000000000000000000000815260048101829052602401610a81565b611b2b83836122b4565b505050565b3073ffffffffffffffffffffffffffffffffffffffff7f0000000000000000000000000000000000000000000000000000000000000000161461071b576040517fe07c8dba00000000000000000000000000000000000000000000000000000000815260040160405180910390fd5b7ff3177357ab46d8af007ab3fdb9af81da189e1068fefdc0073dca88a2cab40a00805473ffffffffffffffffffffffffffffffffffffffff83167fffffffffffffffffffffffff00000000000000000000000000000000000000009091168117825560408051918252517f2f658b440c35314f52658ea8a740e05b284cdc84dc9ae01e891f21b8933e7cad9181900360200190a15050565b611c3f611cb0565b7fcd5ed15c6e187e77e9aee88184c21f4f2182ab5827cb3b7e07fbedcd63f0330080547fffffffffffffffffffffffffffffffffffffffffffffffffffffffffffffff001660011781557f62e78cea01bee320cd4e420270b5ea74000d11b0c9f74754ebdbfc544b05a258336116c0565b611cb8610999565b1561071b576040517fd93c066500000000000000000000000000000000000000000000000000000000815260040160405180910390fd5b5f828218828410028218610728565b6040805173ffffffffffffffffffffffffffffffffffffffff8416602482015260448082018490528251808303909101815260649091019091526020810180517bffffffffffffffffffffffffffffffffffffffffffffffffffffffff167fa9059cbb00000000000000000000000000000000000000000000000000000000179052611b2b908490612316565b611d93612034565b61071b6123b5565b61071b612034565b60405173ffffffffffffffffffffffffffffffffffffffff8481166024830152831660448201525f6064820181905263ffffffff831660848301529081906101019060a401604080517fffffffffffffffffffffffffffffffffffffffffffffffffffffffffffffffe08184030181529181526020820180517bffffffffffffffffffffffffffffffffffffffffffffffffffffffff167fd9139f190000000000000000000000000000000000000000000000000000000017905251611e699190612d2a565b5f604051808303815f865af19150503d805f8114611ea2576040519150601f19603f3d011682016040523d82523d5f602084013e611ea7565b606091505b509150915081611ee3576040517f7d844d4300000000000000000000000000000000000000000000000000000000815260040160405180910390fd5b5050505050565b60405173ffffffffffffffffffffffffffffffffffffffff821660248201525f60448201819052908190819061010190606401604080517fffffffffffffffffffffffffffffffffffffffffffffffffffffffffffffffe08184030181529181526020820180517bffffffffffffffffffffffffffffffffffffffffffffffffffffffff167f65b55e260000000000000000000000000000000000000000000000000000000017905251611f9e9190612d2a565b5f604051808303815f865af19150503d805f8114611fd7576040519150601f19603f3d011682016040523d82523d5f602084013e611fdc565b606091505b509150915081612018576040517f7d844d4300000000000000000000000000000000000000000000000000000000815260040160405180910390fd5b8080602001905181019061202c9190612b45565b949350505050565b7ff0c57e16840df040f15088dc2f81fe391c3923bec73e23a9662efc9c229c6a005468010000000000000000900460ff1661071b576040517fd7e6bcf800000000000000000000000000000000000000000000000000000000815260040160405180910390fd5b6120a3612034565b61144b81611b9f565b6120b4612034565b7fcd5ed15c6e187e77e9aee88184c21f4f2182ab5827cb3b7e07fbedcd63f0330080547fffffffffffffffffffffffffffffffffffffffffffffffffffffffffffffff00169055565b60405173ffffffffffffffffffffffffffffffffffffffff848116602483015283811660448301527fffffffff00000000000000000000000000000000000000000000000000000000831660648301525f91829182918291891690608401604080517fffffffffffffffffffffffffffffffffffffffffffffffffffffffffffffffe08184030181529181526020820180517bffffffffffffffffffffffffffffffffffffffffffffffffffffffff167fb700961300000000000000000000000000000000000000000000000000000000179052516121dc9190612d2a565b5f60405180830381855afa9150503d805f8114612214576040519150601f19603f3d011682016040523d82523d5f602084013e612219565b606091505b5091509150811561226b57604081511061224b57808060200190518101906122419190612d54565b909450925061226b565b602081511061226b57808060200190518101906122689190612d7e565b93505b505094509492505050565b61227e610999565b61071b576040517f8dfc202b00000000000000000000000000000000000000000000000000000000815260040160405180910390fd5b6122bd826123bd565b60405173ffffffffffffffffffffffffffffffffffffffff8316907fbc7cd75a20ee27fd9adebab32041f755214dbc6bffa90cc0225b39da2e5c2d3b905f90a280511561230e57611b2b828261248b565b610967612501565b5f8060205f8451602086015f885af180612335576040513d5f823e3d81fd5b50505f513d9150811561234c578060011415612366565b73ffffffffffffffffffffffffffffffffffffffff84163b155b15610946576040517f5274afe700000000000000000000000000000000000000000000000000000000815273ffffffffffffffffffffffffffffffffffffffff85166004820152602401610a81565b6118bf612034565b8073ffffffffffffffffffffffffffffffffffffffff163b5f03612425576040517f4c9c8ce300000000000000000000000000000000000000000000000000000000815273ffffffffffffffffffffffffffffffffffffffff82166004820152602401610a81565b7f360894a13ba1a3210667c828492db98dca3e2076cc3735a920a3ca505d382bbc80547fffffffffffffffffffffffff00000000000000000000000000000000000000001673ffffffffffffffffffffffffffffffffffffffff92909216919091179055565b60605f808473ffffffffffffffffffffffffffffffffffffffff16846040516124b49190612d2a565b5f60405180830381855af49150503d805f81146124ec576040519150601f19603f3d011682016040523d82523d5f602084013e6124f1565b606091505b5091509150611835858383612539565b341561071b576040517fb398979f00000000000000000000000000000000000000000000000000000000815260040160405180910390fd5b60608261254e57612549826125c8565b61057a565b8151158015612572575073ffffffffffffffffffffffffffffffffffffffff84163b155b156125c1576040517f9996b31500000000000000000000000000000000000000000000000000000000815273ffffffffffffffffffffffffffffffffffffffff85166004820152602401610a81565b508061057a565b8051156125d85780518082602001fd5b6040517fd6bda27500000000000000000000000000000000000000000000000000000000815260040160405180910390fd5b73ffffffffffffffffffffffffffffffffffffffff8116811461144b575f80fd5b5f805f6060848603121561263d575f80fd5b83356126488161260a565b925060208401356126588161260a565b915060408401356126688161260a565b809150509250925092565b5f60208284031215612683575f80fd5b813561057a8161260a565b5f806040838503121561269f575f80fd5b82356126aa8161260a565b915060208301356126ba8161260a565b809150509250929050565b63ffffffff8116811461144b575f80fd5b5f8083601f8401126126e6575f80fd5b50813567ffffffffffffffff8111156126fd575f80fd5b602083019150836020828501011115612714575f80fd5b9250929050565b5f805f806060858703121561272e575f80fd5b84356127398161260a565b93506020850135612749816126c5565b9250604085013567ffffffffffffffff811115612764575f80fd5b612770878288016126d6565b95989497509550505050565b7f4e487b71000000000000000000000000000000000000000000000000000000005f52604160045260245ffd5b604051601f82017fffffffffffffffffffffffffffffffffffffffffffffffffffffffffffffffe016810167ffffffffffffffff811182821017156127f0576127f061277c565b604052919050565b5f8060408385031215612809575f80fd5b82356128148161260a565b9150602083013567ffffffffffffffff81111561282f575f80fd5b8301601f8101851361283f575f80fd5b803567ffffffffffffffff8111156128595761285961277c565b61288a60207fffffffffffffffffffffffffffffffffffffffffffffffffffffffffffffffe0601f840116016127a9565b81815286602083850101111561289e575f80fd5b816020840160208301375f602083830101528093505050509250929050565b602081525f82518060208401528060208501604085015e5f6040828501015260407fffffffffffffffffffffffffffffffffffffffffffffffffffffffffffffffe0601f83011684010191505092915050565b5f8083601f840112612920575f80fd5b50813567ffffffffffffffff811115612937575f80fd5b6020830191508360208260051b8501011115612714575f80fd5b5f82601f830112612960575f80fd5b813567ffffffffffffffff81111561297a5761297a61277c565b8060051b61298a602082016127a9565b918252602081850181019290810190868411156129a5575f80fd5b6020860192505b838310156129d05782356129bf8161260a565b8252602092830192909101906129ac565b9695505050505050565b5f805f805f805f8060a0898b0312156129f1575f80fd5b88356129fc8161260a565b9750602089013567ffffffffffffffff811115612a17575f80fd5b612a238b828c01612910565b909850965050604089013567ffffffffffffffff811115612a42575f80fd5b612a4e8b828c01612951565b955050606089013567ffffffffffffffff811115612a6a575f80fd5b612a768b828c01612910565b909550935050608089013567ffffffffffffffff811115612a95575f80fd5b612aa18b828c016126d6565b999c989b5096995094979396929594505050565b5f8060408385031215612ac6575f80fd5b8235612ad18161260a565b915060208301356126ba816126c5565b5f60208284031215612af1575f80fd5b815161057a816126c5565b7f4e487b71000000000000000000000000000000000000000000000000000000005f52601160045260245ffd5b63ffffffff818116838216019081111561072b5761072b612afc565b5f60208284031215612b55575f80fd5b5051919050565b808202811582820484141761072b5761072b612afc565b5f82612ba6577f4e487b71000000000000000000000000000000000000000000000000000000005f52601260045260245ffd5b500490565b8181038181111561072b5761072b612afc565b8082018082111561072b5761072b612afc565b5f60208284031215612be1575f80fd5b815161057a8161260a565b7f4e487b71000000000000000000000000000000000000000000000000000000005f52603260045260245ffd5b5f60208284031215612c29575f80fd5b813561057a816126c5565b5f8085851115612c42575f80fd5b83861115612c4e575f80fd5b5050820193919092039150565b80357fffffffff000000000000000000000000000000000000000000000000000000008116906004841015612cba577fffffffff00000000000000000000000000000000000000000000000000000000808560040360031b1b82161691505b5092915050565b73ffffffffffffffffffffffffffffffffffffffff8416815260406020820152816040820152818360608301375f818301606090810191909152601f9092017fffffffffffffffffffffffffffffffffffffffffffffffffffffffffffffffe016010192915050565b5f82518060208501845e5f920191825250919050565b80518015158114612d4f575f80fd5b919050565b5f8060408385031215612d65575f80fd5b612d6e83612d40565b915060208301516126ba816126c5565b5f60208284031215612d8e575f80fd5b61072882612d4056fea264697066735822122060c104387ba3b6df98fffe2fa8f486492afea1744db5526640983c33dc0efb3564736f6c634300081a0033","linkReferences":{}},"methodIdentifiers":{"IP_GRAPH()":"6b9ea4f6","IP_GRAPH_ACL()":"b9109258","ROYALTY_MODULE()":"73b7ce28","UPGRADE_INTERFACE_VERSION()":"ad3cb1cc","__ProtocolPausable_init(address)":"198fdd98","authority()":"bf7e214f","getPolicyRoyalty(address,address)":"404bf58f","getPolicyRoyaltyStack(address)":"093f30a2","getPolicyRtsRequiredToLink(address,uint32)":"f2197fae","getTransferredTokens(address,address,address)":"03b38a50","initialize(address)":"c4d66de8","isConsumingScheduledOp()":"8fb36037","isSupportGroup()":"1503ccfa","onLicenseMinting(address,uint32,bytes)":"4b02e1c0","onLinkToParents(address,address[],address[],uint32[],bytes)":"e9f89904","pause()":"8456cb59","paused()":"5c975abb","proxiableUUID()":"52d1902d","setAuthority(address)":"7a9e5e4b","transferToVault(address,address,address)":"b6a92a53","unpause()":"3f4ba83a","upgradeToAndCall(address,bytes)":"4f1ef286"},"id":63}