{"abi":[{"type":"function","name":"approve","inputs":[{"name":"spender","type":"address","internalType":"address"},{"name":"id","type":"uint256","internalType":"uint256"}],"outputs":[],"stateMutability":"nonpayable"},{"type":"function","name":"balanceOf","inputs":[{"name":"owner","type":"address","internalType":"address"}],"outputs":[{"name":"","type":"uint256","internalType":"uint256"}],"stateMutability":"view"},{"type":"function","name":"getApproved","inputs":[{"name":"","type":"uint256","internalType":"uint256"}],"outputs":[{"name":"","type":"address","internalType":"address"}],"stateMutability":"view"},{"type":"function","name":"initialize","inputs":[{"name":"_name","type":"string","internalType":"string"},{"name":"_symbol","type":"string","internalType":"string"}],"outputs":[],"stateMutability":"nonpayable"},{"type":"function","name":"isApprovedForAll","inputs":[{"name":"","type":"address","internalType":"address"},{"name":"","type":"address","internalType":"address"}],"outputs":[{"name":"","type":"bool","internalType":"bool"}],"stateMutability":"view"},{"type":"function","name":"name","inputs":[],"outputs":[{"name":"","type":"string","internalType":"string"}],"stateMutability":"view"},{"type":"function","name":"ownerOf","inputs":[{"name":"id","type":"uint256","internalType":"uint256"}],"outputs":[{"name":"owner","type":"address","internalType":"address"}],"stateMutability":"view"},{"type":"function","name":"safeTransferFrom","inputs":[{"name":"from","type":"address","internalType":"address"},{"name":"to","type":"address","internalType":"address"},{"name":"id","type":"uint256","internalType":"uint256"}],"outputs":[],"stateMutability":"nonpayable"},{"type":"function","name":"safeTransferFrom","inputs":[{"name":"from","type":"address","internalType":"address"},{"name":"to","type":"address","internalType":"address"},{"name":"id","type":"uint256","internalType":"uint256"},{"name":"data","type":"bytes","internalType":"bytes"}],"outputs":[],"stateMutability":"nonpayable"},{"type":"function","name":"setApprovalForAll","inputs":[{"name":"operator","type":"address","internalType":"address"},{"name":"approved","type":"bool","internalType":"bool"}],"outputs":[],"stateMutability":"nonpayable"},{"type":"function","name":"supportsInterface","inputs":[{"name":"interfaceId","type":"bytes4","internalType":"bytes4"}],"outputs":[{"name":"","type":"bool","internalType":"bool"}],"stateMutability":"pure"},{"type":"function","name":"symbol","inputs":[],"outputs":[{"name":"","type":"string","internalType":"string"}],"stateMutability":"view"},{"type":"function","name":"tokenURI","inputs":[{"name":"id","type":"uint256","internalType":"uint256"}],"outputs":[{"name":"","type":"string","internalType":"string"}],"stateMutability":"view"},{"type":"function","name":"transferFrom","inputs":[{"name":"from","type":"address","internalType":"address"},{"name":"to","type":"address","internalType":"address"},{"name":"id","type":"uint256","internalType":"uint256"}],"outputs":[],"stateMutability":"nonpayable"},{"type":"event","name":"Approval","inputs":[{"name":"owner","type":"address","indexed":true,"internalType":"address"},{"name":"spender","type":"address","indexed":true,"internalType":"address"},{"name":"id","type":"uint256","indexed":true,"internalType":"uint256"}],"anonymous":false},{"type":"event","name":"ApprovalForAll","inputs":[{"name":"owner","type":"address","indexed":true,"internalType":"address"},{"name":"operator","type":"address","indexed":true,"internalType":"address"},{"name":"approved","type":"bool","indexed":false,"internalType":"bool"}],"anonymous":false},{"type":"event","name":"Transfer","inputs":[{"name":"from","type":"address","indexed":true,"internalType":"address"},{"name":"to","type":"address","indexed":true,"internalType":"address"},{"name":"id","type":"uint256","indexed":true,"internalType":"uint256"}],"anonymous":false}],"bytecode":{"object":"0x6080604052348015600e575f80fd5b506113b88061001c5f395ff3fe608060405234801561000f575f80fd5b50600436106100e5575f3560e01c80636352211e11610088578063a22cb46511610063578063a22cb4651461020a578063b88d4fde1461021d578063c87b56dd14610230578063e985e9c514610244575f80fd5b80636352211e146101ce57806370a08231146101e157806395d89b4114610202575f80fd5b8063095ea7b3116100c3578063095ea7b31461018057806323b872dd1461019557806342842e0e146101a85780634cd88b76146101bb575f80fd5b806301ffc9a7146100e957806306fdde0314610111578063081812fc14610126575b5f80fd5b6100fc6100f7366004610d67565b610271565b60405190151581526020015b60405180910390f35b610119610355565b6040516101089190610dd5565b61015b610134366004610de7565b60046020525f908152604090205473ffffffffffffffffffffffffffffffffffffffff1681565b60405173ffffffffffffffffffffffffffffffffffffffff9091168152602001610108565b61019361018e366004610e21565b6103e0565b005b6101936101a3366004610e49565b61052c565b6101936101b6366004610e49565b61081b565b6101936101c9366004610f63565b61096b565b61015b6101dc366004610de7565b610a20565b6101f46101ef366004610fc8565b610ab0565b604051908152602001610108565b610119610b56565b610193610218366004610fe1565b610b63565b61019361022b36600461101a565b610bf9565b61011961023e366004610de7565b50606090565b6100fc610252366004611091565b600560209081525f928352604080842090915290825290205460ff1681565b5f7f01ffc9a7000000000000000000000000000000000000000000000000000000007fffffffff000000000000000000000000000000000000000000000000000000008316148061030357507f80ac58cd000000000000000000000000000000000000000000000000000000007fffffffff000000000000000000000000000000000000000000000000000000008316145b8061034f57507f5b5e139f000000000000000000000000000000000000000000000000000000007fffffffff000000000000000000000000000000000000000000000000000000008316145b92915050565b5f8054610361906110c2565b80601f016020809104026020016040519081016040528092919081815260200182805461038d906110c2565b80156103d85780601f106103af576101008083540402835291602001916103d8565b820191905f5260205f20905b8154815290600101906020018083116103bb57829003601f168201915b505050505081565b5f8181526002602052604090205473ffffffffffffffffffffffffffffffffffffffff1633811480610441575073ffffffffffffffffffffffffffffffffffffffff81165f90815260056020908152604080832033845290915290205460ff165b6104ac576040517f08c379a000000000000000000000000000000000000000000000000000000000815260206004820152600e60248201527f4e4f545f415554484f52495a454400000000000000000000000000000000000060448201526064015b60405180910390fd5b5f8281526004602052604080822080547fffffffffffffffffffffffff00000000000000000000000000000000000000001673ffffffffffffffffffffffffffffffffffffffff87811691821790925591518593918516917f8c5be1e5ebec7d5bd14f71427d1e84f3dd0314c0f7b2291e5b200ac8c7c3b92591a4505050565b5f8181526002602052604090205473ffffffffffffffffffffffffffffffffffffffff8481169116146105bb576040517f08c379a000000000000000000000000000000000000000000000000000000000815260206004820152600a60248201527f57524f4e475f46524f4d0000000000000000000000000000000000000000000060448201526064016104a3565b73ffffffffffffffffffffffffffffffffffffffff8216610638576040517f08c379a000000000000000000000000000000000000000000000000000000000815260206004820152601160248201527f494e56414c49445f524543495049454e5400000000000000000000000000000060448201526064016104a3565b3373ffffffffffffffffffffffffffffffffffffffff8416148061068b575073ffffffffffffffffffffffffffffffffffffffff83165f90815260056020908152604080832033845290915290205460ff165b806106b857505f8181526004602052604090205473ffffffffffffffffffffffffffffffffffffffff1633145b61071e576040517f08c379a000000000000000000000000000000000000000000000000000000000815260206004820152600e60248201527f4e4f545f415554484f52495a454400000000000000000000000000000000000060448201526064016104a3565b73ffffffffffffffffffffffffffffffffffffffff83165f90815260036020526040812080549161074e83611140565b909155505073ffffffffffffffffffffffffffffffffffffffff82165f90815260036020526040812080549161078383611174565b90915550505f818152600260209081526040808320805473ffffffffffffffffffffffffffffffffffffffff8088167fffffffffffffffffffffffff000000000000000000000000000000000000000092831681179093556004909452828520805490911690559051849391928716917fddf252ad1be2c89b69c2b068fc378daa952ba7f163c4a11628f55a4df523b3ef91a4505050565b61082683838361052c565b813b158061090057506040517f150b7a020000000000000000000000000000000000000000000000000000000080825233600483015273ffffffffffffffffffffffffffffffffffffffff858116602484015260448301849052608060648401525f608484015290919084169063150b7a029060a4016020604051808303815f875af11580156108b8573d5f803e3d5ffd5b505050506040513d601f19601f820116820180604052508101906108dc91906111ab565b7fffffffff0000000000000000000000000000000000000000000000000000000016145b610966576040517f08c379a000000000000000000000000000000000000000000000000000000000815260206004820152601060248201527f554e534146455f524543495049454e540000000000000000000000000000000060448201526064016104a3565b505050565b60065460ff16156109d8576040517f08c379a000000000000000000000000000000000000000000000000000000000815260206004820152601360248201527f414c52454144595f494e495449414c495a45440000000000000000000000000060448201526064016104a3565b5f6109e38382611211565b5060016109f08282611211565b5050600680547fffffffffffffffffffffffffffffffffffffffffffffffffffffffffffffff0016600117905550565b5f8181526002602052604090205473ffffffffffffffffffffffffffffffffffffffff1680610aab576040517f08c379a000000000000000000000000000000000000000000000000000000000815260206004820152600a60248201527f4e4f545f4d494e5445440000000000000000000000000000000000000000000060448201526064016104a3565b919050565b5f73ffffffffffffffffffffffffffffffffffffffff8216610b2e576040517f08c379a000000000000000000000000000000000000000000000000000000000815260206004820152600c60248201527f5a45524f5f41444452455353000000000000000000000000000000000000000060448201526064016104a3565b5073ffffffffffffffffffffffffffffffffffffffff165f9081526003602052604090205490565b60018054610361906110c2565b335f81815260056020908152604080832073ffffffffffffffffffffffffffffffffffffffff87168085529083529281902080547fffffffffffffffffffffffffffffffffffffffffffffffffffffffffffffff001686151590811790915590519081529192917f17307eab39ab6107e8899845ad3d59bd9653f200f220920489ca2b5937696c31910160405180910390a35050565b610c0484848461052c565b823b1580610ccb57506040517f150b7a02000000000000000000000000000000000000000000000000000000008082529073ffffffffffffffffffffffffffffffffffffffff85169063150b7a0290610c67903390899088908890600401611328565b6020604051808303815f875af1158015610c83573d5f803e3d5ffd5b505050506040513d601f19601f82011682018060405250810190610ca791906111ab565b7fffffffff0000000000000000000000000000000000000000000000000000000016145b610d31576040517f08c379a000000000000000000000000000000000000000000000000000000000815260206004820152601060248201527f554e534146455f524543495049454e540000000000000000000000000000000060448201526064016104a3565b50505050565b7fffffffff0000000000000000000000000000000000000000000000000000000081168114610d64575f80fd5b50565b5f60208284031215610d77575f80fd5b8135610d8281610d37565b9392505050565b5f81518084528060208401602086015e5f6020828601015260207fffffffffffffffffffffffffffffffffffffffffffffffffffffffffffffffe0601f83011685010191505092915050565b602081525f610d826020830184610d89565b5f60208284031215610df7575f80fd5b5035919050565b803573ffffffffffffffffffffffffffffffffffffffff81168114610aab575f80fd5b5f8060408385031215610e32575f80fd5b610e3b83610dfe565b946020939093013593505050565b5f805f60608486031215610e5b575f80fd5b610e6484610dfe565b9250610e7260208501610dfe565b929592945050506040919091013590565b7f4e487b71000000000000000000000000000000000000000000000000000000005f52604160045260245ffd5b5f8067ffffffffffffffff841115610eca57610eca610e83565b506040517fffffffffffffffffffffffffffffffffffffffffffffffffffffffffffffffe0601f85018116603f0116810181811067ffffffffffffffff82111715610f1757610f17610e83565b604052838152905080828401851015610f2e575f80fd5b838360208301375f60208583010152509392505050565b5f82601f830112610f54575f80fd5b610d8283833560208501610eb0565b5f8060408385031215610f74575f80fd5b823567ffffffffffffffff811115610f8a575f80fd5b610f9685828601610f45565b925050602083013567ffffffffffffffff811115610fb2575f80fd5b610fbe85828601610f45565b9150509250929050565b5f60208284031215610fd8575f80fd5b610d8282610dfe565b5f8060408385031215610ff2575f80fd5b610ffb83610dfe565b91506020830135801515811461100f575f80fd5b809150509250929050565b5f805f806080858703121561102d575f80fd5b61103685610dfe565b935061104460208601610dfe565b925060408501359150606085013567ffffffffffffffff811115611066575f80fd5b8501601f81018713611076575f80fd5b61108587823560208401610eb0565b91505092959194509250565b5f80604083850312156110a2575f80fd5b6110ab83610dfe565b91506110b960208401610dfe565b90509250929050565b600181811c908216806110d657607f821691505b60208210810361110d577f4e487b71000000000000000000000000000000000000000000000000000000005f52602260045260245ffd5b50919050565b7f4e487b71000000000000000000000000000000000000000000000000000000005f52601160045260245ffd5b5f8161114e5761114e611113565b507fffffffffffffffffffffffffffffffffffffffffffffffffffffffffffffffff0190565b5f7fffffffffffffffffffffffffffffffffffffffffffffffffffffffffffffffff82036111a4576111a4611113565b5060010190565b5f602082840312156111bb575f80fd5b8151610d8281610d37565b601f82111561096657805f5260205f20601f840160051c810160208510156111eb5750805b601f840160051c820191505b8181101561120a575f81556001016111f7565b5050505050565b815167ffffffffffffffff81111561122b5761122b610e83565b61123f8161123984546110c2565b846111c6565b6020601f821160018114611290575f831561125a5750848201515b7fffffffffffffffffffffffffffffffffffffffffffffffffffffffffffffffff600385901b1c1916600184901b17845561120a565b5f848152602081207fffffffffffffffffffffffffffffffffffffffffffffffffffffffffffffffe08516915b828110156112dd57878501518255602094850194600190920191016112bd565b508482101561131957868401517fffffffffffffffffffffffffffffffffffffffffffffffffffffffffffffffff600387901b60f8161c191681555b50505050600190811b01905550565b73ffffffffffffffffffffffffffffffffffffffff8516815273ffffffffffffffffffffffffffffffffffffffff84166020820152826040820152608060608201525f6113786080830184610d89565b969550505050505056fea2646970667358221220da7d1f11e686840905cfa98eb07b76f589fad4c4a6adc7325ee4c5ab54724e4064736f6c634300081a0033","linkReferences":{}},"methodIdentifiers":{"approve(address,uint256)":"095ea7b3","balanceOf(address)":"70a08231","getApproved(uint256)":"081812fc","initialize(string,string)":"4cd88b76","isApprovedForAll(address,address)":"e985e9c5","name()":"06fdde03","ownerOf(uint256)":"6352211e","safeTransferFrom(address,address,uint256)":"42842e0e","safeTransferFrom(address,address,uint256,bytes)":"b88d4fde","setApprovalForAll(address,bool)":"a22cb465","supportsInterface(bytes4)":"01ffc9a7","symbol()":"95d89b41","tokenURI(uint256)":"c87b56dd","transferFrom(address,address,uint256)":"23b872dd"},"id":83}