{"abi":[{"type":"constructor","inputs":[{"name":"accessManager","type":"address","internalType":"address"}],"stateMutability":"nonpayable"},{"type":"function","name":"authority","inputs":[],"outputs":[{"name":"","type":"address","internalType":"address"}],"stateMutability":"view"},{"type":"function","name":"endInternalAccess","inputs":[],"outputs":[],"stateMutability":"nonpayable"},{"type":"function","name":"isConsumingScheduledOp","inputs":[],"outputs":[{"name":"","type":"bytes4","internalType":"bytes4"}],"stateMutability":"view"},{"type":"function","name":"isInternalAccess","inputs":[],"outputs":[{"name":"","type":"bool","internalType":"bool"}],"stateMutability":"view"},{"type":"function","name":"isWhitelisted","inputs":[{"name":"addr","type":"address","internalType":"address"}],"outputs":[{"name":"","type":"bool","internalType":"bool"}],"stateMutability":"view"},{"type":"function","name":"revokeWhitelistedAddress","inputs":[{"name":"addr","type":"address","internalType":"address"}],"outputs":[],"stateMutability":"nonpayable"},{"type":"function","name":"setAuthority","inputs":[{"name":"newAuthority","type":"address","internalType":"address"}],"outputs":[],"stateMutability":"nonpayable"},{"type":"function","name":"startInternalAccess","inputs":[],"outputs":[],"stateMutability":"nonpayable"},{"type":"function","name":"whitelistAddress","inputs":[{"name":"addr","type":"address","internalType":"address"}],"outputs":[],"stateMutability":"nonpayable"},{"type":"event","name":"AuthorityUpdated","inputs":[{"name":"authority","type":"address","indexed":false,"internalType":"address"}],"anonymous":false},{"type":"event","name":"RevokedWhitelistedAddress","inputs":[{"name":"addr","type":"address","indexed":false,"internalType":"address"}],"anonymous":false},{"type":"event","name":"WhitelistedAddress","inputs":[{"name":"addr","type":"address","indexed":false,"internalType":"address"}],"anonymous":false},{"type":"error","name":"AccessManagedInvalidAuthority","inputs":[{"name":"authority","type":"address","internalType":"address"}]},{"type":"error","name":"AccessManagedRequiredDelay","inputs":[{"name":"caller","type":"address","internalType":"address"},{"name":"delay","type":"uint32","internalType":"uint32"}]},{"type":"error","name":"AccessManagedUnauthorized","inputs":[{"name":"caller","type":"address","internalType":"address"}]},{"type":"error","name":"IPGraphACL__NotWhitelisted","inputs":[{"name":"addr","type":"address","internalType":"address"}]}],"bytecode":{"object":"0x6080604052348015600e575f80fd5b50604051610c29380380610c29833981016040819052602b91608c565b806033816039565b505060b7565b5f80546001600160a01b0319166001600160a01b0383169081179091556040519081527f2f658b440c35314f52658ea8a740e05b284cdc84dc9ae01e891f21b8933e7cad9060200160405180910390a150565b5f60208284031215609b575f80fd5b81516001600160a01b038116811460b0575f80fd5b9392505050565b610b65806100c45f395ff3fe608060405234801561000f575f80fd5b506004361061009f575f3560e01c80638fb3603711610072578063a23c6e7611610058578063a23c6e761461015b578063bd6378f814610163578063bf7e214f14610176575f80fd5b80638fb360371461011a5780639470ee9f14610153575f80fd5b80633af32abf146100a357806341566585146100cb5780634d62e26f146100e05780637a9e5e4b14610107575b5f80fd5b6100b66100b136600461097f565b61019d565b60405190151581526020015b60405180910390f35b6100de6100d936600461097f565b6101ad565b005b7f12f3ababaacf4ad583e6f4432db5f70a1dbfa9803ecdf84a0efbfe15211606005c6100b6565b6100de61011536600461097f565b6102ac565b610122610390565b6040517fffffffff0000000000000000000000000000000000000000000000000000000090911681526020016100c2565b6100de6103dc565b6100de610447565b6100de61017136600461097f565b6104b1565b5f5460405173ffffffffffffffffffffffffffffffffffffffff90911681526020016100c2565b5f6101a782610590565b92915050565b6101b9335b5f366105fd565b6040517fffffffffffffffffffffffffffffffffffffffff000000000000000000000000606083901b1660208201527faf99b37fdaacca72ee7240cb1435cc9e498aee6ef4edc19c8cc0cd787f4e68006034820152600190610232906054015b6040516020818303038152906040528051906020012090565b80547fffffffffffffffffffffffffffffffffffffffffffffffffffffffffffffff001691151591909117905560405173ffffffffffffffffffffffffffffffffffffffff821681527f9659de77bedae44137acf94b0b2a83c1a7e51fec986c5d6098bbde7e4f0d02e8906020015b60405180910390a150565b5f54339073ffffffffffffffffffffffffffffffffffffffff16811461031b576040517f068ca9d800000000000000000000000000000000000000000000000000000000815273ffffffffffffffffffffffffffffffffffffffff821660048201526024015b60405180910390fd5b8173ffffffffffffffffffffffffffffffffffffffff163b5f03610383576040517fc2f31e5e00000000000000000000000000000000000000000000000000000000815273ffffffffffffffffffffffffffffffffffffffff83166004820152602401610312565b61038c82610794565b5050565b5f805474010000000000000000000000000000000000000000900460ff166103b757505f90565b507f8fb360370000000000000000000000000000000000000000000000000000000090565b6103e533610590565b61041d576040517f785afb1f000000000000000000000000000000000000000000000000000000008152336004820152602401610312565b7f12f3ababaacf4ad583e6f4432db5f70a1dbfa9803ecdf84a0efbfe1521160600600180825d5050565b61045033610590565b610488576040517f785afb1f000000000000000000000000000000000000000000000000000000008152336004820152602401610312565b7f12f3ababaacf4ad583e6f4432db5f70a1dbfa9803ecdf84a0efbfe15211606005f80825d5050565b6104ba336101b2565b6040517fffffffffffffffffffffffffffffffffffffffff000000000000000000000000606083901b1660208201527faf99b37fdaacca72ee7240cb1435cc9e498aee6ef4edc19c8cc0cd787f4e680060348201525f9061051d90605401610219565b80547fffffffffffffffffffffffffffffffffffffffffffffffffffffffffffffff001691151591909117905560405173ffffffffffffffffffffffffffffffffffffffff821681527f67eda52bc46415f42970ac70b247f279374dd9b5dfe0fa7d3e8d8109a4e305eb906020016102a1565b6040517fffffffffffffffffffffffffffffffffffffffff000000000000000000000000606083901b1660208201527faf99b37fdaacca72ee7240cb1435cc9e498aee6ef4edc19c8cc0cd787f4e680060348201525f906105f390605401610219565b5460ff1692915050565b5f8061063d6106205f5473ffffffffffffffffffffffffffffffffffffffff1690565b863061062f60045f898b6109b9565b610638916109e0565b610806565b915091508161078d5763ffffffff811615610743575f80547fffffffffffffffffffffff00ffffffffffffffffffffffffffffffffffffffff811674010000000000000000000000000000000000000000179091556040517f94c7d7ee00000000000000000000000000000000000000000000000000000000815273ffffffffffffffffffffffffffffffffffffffff909116906394c7d7ee906106e990889088908890600401610a46565b5f604051808303815f87803b158015610700575f80fd5b505af1158015610712573d5f803e3d5ffd5b50505f80547fffffffffffffffffffffff00ffffffffffffffffffffffffffffffffffffffff1690555061078d9050565b6040517f068ca9d800000000000000000000000000000000000000000000000000000000815273ffffffffffffffffffffffffffffffffffffffff86166004820152602401610312565b5050505050565b5f80547fffffffffffffffffffffffff00000000000000000000000000000000000000001673ffffffffffffffffffffffffffffffffffffffff83169081179091556040519081527f2f658b440c35314f52658ea8a740e05b284cdc84dc9ae01e891f21b8933e7cad906020016102a1565b60405173ffffffffffffffffffffffffffffffffffffffff848116602483015283811660448301527fffffffff00000000000000000000000000000000000000000000000000000000831660648301525f91829182918291891690608401604080517fffffffffffffffffffffffffffffffffffffffffffffffffffffffffffffffe08184030181529181526020820180517bffffffffffffffffffffffffffffffffffffffffffffffffffffffff167fb700961300000000000000000000000000000000000000000000000000000000179052516108e59190610aaf565b5f60405180830381855afa9150503d805f811461091d576040519150601f19603f3d011682016040523d82523d5f602084013e610922565b606091505b50915091508115610974576040815110610954578080602001905181019061094a9190610ad9565b9094509250610974565b602081511061097457808060200190518101906109719190610b16565b93505b505094509492505050565b5f6020828403121561098f575f80fd5b813573ffffffffffffffffffffffffffffffffffffffff811681146109b2575f80fd5b9392505050565b5f80858511156109c7575f80fd5b838611156109d3575f80fd5b5050820193919092039150565b80357fffffffff000000000000000000000000000000000000000000000000000000008116906004841015610a3f577fffffffff00000000000000000000000000000000000000000000000000000000808560040360031b1b82161691505b5092915050565b73ffffffffffffffffffffffffffffffffffffffff8416815260406020820152816040820152818360608301375f818301606090810191909152601f9092017fffffffffffffffffffffffffffffffffffffffffffffffffffffffffffffffe016010192915050565b5f82518060208501845e5f920191825250919050565b80518015158114610ad4575f80fd5b919050565b5f8060408385031215610aea575f80fd5b610af383610ac5565b9150602083015163ffffffff81168114610b0b575f80fd5b809150509250929050565b5f60208284031215610b26575f80fd5b6109b282610ac556fea2646970667358221220fc4167415d1d6e16ef8c5d0f5baedd7adc20ec76fc0391df003b65ee3471b6ea64736f6c634300081a0033","linkReferences":{}},"methodIdentifiers":{"authority()":"bf7e214f","endInternalAccess()":"a23c6e76","isConsumingScheduledOp()":"8fb36037","isInternalAccess()":"4d62e26f","isWhitelisted(address)":"3af32abf","revokeWhitelistedAddress(address)":"bd6378f8","setAuthority(address)":"7a9e5e4b","startInternalAccess()":"9470ee9f","whitelistAddress(address)":"41566585"},"id":45}