{"abi":[{"type":"constructor","inputs":[{"name":"_parentIpId","type":"address","internalType":"address"},{"name":"_parentLicenseTermsId","type":"uint256","internalType":"uint256"},{"name":"_derivativeCollectionName","type":"string","internalType":"string"},{"name":"_derivativeCollectionSymbol","type":"string","internalType":"string"}],"stateMutability":"nonpayable"},{"type":"function","name":"IP_ASSET_REGISTRY","inputs":[],"outputs":[{"name":"","type":"address","internalType":"contract IIPAssetRegistry"}],"stateMutability":"view"},{"type":"function","name":"REGISTRATION_WORKFLOWS","inputs":[],"outputs":[{"name":"","type":"address","internalType":"contract IRegistrationWorkflows"}],"stateMutability":"view"},{"type":"function","name":"WIP","inputs":[],"outputs":[{"name":"","type":"address","internalType":"address"}],"stateMutability":"view"},{"type":"function","name":"currencyTokenForDerivativeFees","inputs":[],"outputs":[{"name":"","type":"address","internalType":"address"}],"stateMutability":"view"},{"type":"function","name":"derivativeSpgNft","inputs":[],"outputs":[{"name":"","type":"address","internalType":"contract ISPGNFT"}],"stateMutability":"view"},{"type":"function","name":"mintDerivativeAndRegisterIp","inputs":[{"name":"_recipient","type":"address","internalType":"address"},{"name":"_ipMetadata","type":"tuple","internalType":"struct WorkflowStructs.IPMetadata","components":[{"name":"ipMetadataURI","type":"string","internalType":"string"},{"name":"ipMetadataHash","type":"bytes32","internalType":"bytes32"},{"name":"nftMetadataURI","type":"string","internalType":"string"},{"name":"nftMetadataHash","type":"bytes32","internalType":"bytes32"}]}],"outputs":[{"name":"derivativeIpId","type":"address","internalType":"address"},{"name":"derivativeTokenId","type":"uint256","internalType":"uint256"}],"stateMutability":"nonpayable"},{"type":"function","name":"onERC721Received","inputs":[{"name":"","type":"address","internalType":"address"},{"name":"","type":"address","internalType":"address"},{"name":"","type":"uint256","internalType":"uint256"},{"name":"","type":"bytes","internalType":"bytes"}],"outputs":[{"name":"","type":"bytes4","internalType":"bytes4"}],"stateMutability":"nonpayable"},{"type":"function","name":"parentIpIdToDeriveFrom","inputs":[],"outputs":[{"name":"","type":"address","internalType":"address"}],"stateMutability":"view"},{"type":"function","name":"parentLicenseTermsId","inputs":[],"outputs":[{"name":"","type":"uint256","internalType":"uint256"}],"stateMutability":"view"},{"type":"event","name":"DerivativeIpAssetMinted","inputs":[{"name":"recipient","type":"address","indexed":true,"internalType":"address"},{"name":"derivativeIpId","type":"address","indexed":true,"internalType":"address"},{"name":"tokenId","type":"uint256","indexed":true,"internalType":"uint256"},{"name":"parentIpId","type":"address","indexed":false,"internalType":"address"}],"anonymous":false},{"type":"event","name":"DerivativeLicenseTokenMinted","inputs":[{"name":"recipient","type":"address","indexed":true,"internalType":"address"},{"name":"derivativeIpId","type":"address","indexed":true,"internalType":"address"},{"name":"derivativeLicenseTokenId","type":"uint256","indexed":true,"internalType":"uint256"}],"anonymous":false},{"type":"event","name":"LicenseTermsAttachedToDerivative","inputs":[{"name":"derivativeIpId","type":"address","indexed":true,"internalType":"address"},{"name":"licenseTemplate","type":"address","indexed":true,"internalType":"address"},{"name":"licenseTermsId","type":"uint256","indexed":false,"internalType":"uint256"}],"anonymous":false},{"type":"event","name":"ParentLicenseTokenMintedForDerivative","inputs":[{"name":"minter","type":"address","indexed":true,"internalType":"address"},{"name":"parentIpId","type":"address","indexed":true,"internalType":"address"},{"name":"parentLicenseTokenId","type":"uint256","indexed":false,"internalType":"uint256"},{"name":"derivativeIpId","type":"address","indexed":false,"internalType":"address"}],"anonymous":false}],"bytecode":{"object":"0x61010060405261054560921b608052348015610019575f80fd5b50604051611611380380611611833981016040819052610038916102de565b6001600160a01b03841661009f5760405162461bcd60e51b815260206004820152602360248201527f506172656e742049502049442063616e6e6f74206265207a65726f206164647260448201526265737360e81b60648201526084015b60405180910390fd5b825f036100fd5760405162461bcd60e51b815260206004820152602660248201527f506172656e74206c6963656e7365207465726d732049442063616e6e6f74206260448201526565207a65726f60d01b6064820152608401610096565b6001600160a01b0380851660a090815260c085815260408051610160810182528681526020808201879052825180820184525f808252838501919091528351918201845280825260608301919091526127106080808401919091529482018190529351909416918401919091523060e0840181905261010084015260016101208401526101408301919091525163e80fe52f60e01b815273be39e1c756e921bd25df86e7aaa31106d1eb04249163e80fe52f916101bd919060040161038b565b6020604051808303815f875af11580156101d9573d5f803e3d5ffd5b505050506040513d601f19601f820116820180604052508101906101fd9190610495565b5f80546001600160a01b0319166001600160a01b0392909216919091179055506104b592505050565b80516001600160a01b038116811461023c575f80fd5b919050565b634e487b7160e01b5f52604160045260245ffd5b5f82601f830112610264575f80fd5b81516001600160401b0381111561027d5761027d610241565b604051601f8201601f19908116603f011681016001600160401b03811182821017156102ab576102ab610241565b6040528181528382016020018510156102c2575f80fd5b8160208501602083015e5f918101602001919091529392505050565b5f805f80608085870312156102f1575f80fd5b6102fa85610226565b6020860151604087015191955093506001600160401b0381111561031c575f80fd5b61032887828801610255565b606087015190935090506001600160401b03811115610345575f80fd5b61035187828801610255565b91505092959194509250565b5f81518084528060208401602086015e5f602082860101526020601f19601f83011685010191505092915050565b602081525f825161016060208401526103a861018084018261035d565b90506020840151601f198483030160408501526103c5828261035d565b9150506040840151601f198483030160608501526103e3828261035d565b9150506060840151601f19848303016080850152610401828261035d565b915050608084015161041b60a085018263ffffffff169052565b5060a084015160c084015260c084015161044060e08501826001600160a01b03169052565b5060e08401516001600160a01b038116610100850152506101008401516001600160a01b0381166101208501525061012084015180151561014085015250610140840151801515610160850152509392505050565b5f602082840312156104a5575f80fd5b6104ae82610226565b9392505050565b60805160a05160c05160e05161110661050b5f395f61025101525f81816101d60152818161067a01526108f501525f818161022a01528181610639015281816107340152610be301525f6101af01526111065ff3fe608060405234801561000f575f80fd5b506004361061009f575f3560e01c80639ba879cf11610072578063b0a63f5211610058578063b0a63f5214610206578063c6ad2ea414610225578063d9951c9f1461024c575f80fd5b80639ba879cf146101aa578063a9e44efd146101d1575f80fd5b80630e59bdd8146100a35780630f25d6ad146100e8578063150b7a021461012757806341c782c51461018f575b5f80fd5b6100be73be39e1c756e921bd25df86e7aaa31106d1eb042481565b60405173ffffffffffffffffffffffffffffffffffffffff90911681526020015b60405180910390f35b6100fb6100f6366004610c6e565b610273565b6040805173ffffffffffffffffffffffffffffffffffffffff90931683526020830191909152016100df565b61015e610135366004610cee565b7f150b7a0200000000000000000000000000000000000000000000000000000000949350505050565b6040517fffffffff0000000000000000000000000000000000000000000000000000000090911681526020016100df565b6100be7377319b4031e6ef1250907aa00018b8b1c67a244b81565b6100be7f000000000000000000000000000000000000000000000000000000000000000081565b6101f87f000000000000000000000000000000000000000000000000000000000000000081565b6040519081526020016100df565b5f546100be9073ffffffffffffffffffffffffffffffffffffffff1681565b6100be7f000000000000000000000000000000000000000000000000000000000000000081565b6100be7f000000000000000000000000000000000000000000000000000000000000000081565b5f8073ffffffffffffffffffffffffffffffffffffffff84166102f7576040517f08c379a000000000000000000000000000000000000000000000000000000000815260206004820181905260248201527f526563697069656e742063616e6e6f74206265207a65726f206164647265737360448201526064015b60405180910390fd5b5f805f9054906101000a900473ffffffffffffffffffffffffffffffffffffffff1673ffffffffffffffffffffffffffffffffffffffff166318160ddd6040518163ffffffff1660e01b8152600401602060405180830381865afa158015610361573d5f803e3d5ffd5b505050506040513d601f19601f820116820180604052508101906103859190610e0c565b610390906001610e23565b5f546040517fd26bb83f00000000000000000000000000000000000000000000000000000000815246600482015273ffffffffffffffffffffffffffffffffffffffff9091166024820152604481018290529091507377319b4031e6ef1250907aa00018b8b1c67a244b9063d26bb83f90606401602060405180830381865afa15801561041f573d5f803e3d5ffd5b505050506040513d601f19601f820116820180604052508101906104439190610e61565b5f80546040517ff1c42a220000000000000000000000000000000000000000000000000000000081529295509091829173be39e1c756e921bd25df86e7aaa31106d1eb04249163f1c42a22916104bb9173ffffffffffffffffffffffffffffffffffffffff9091169030908b90600190600401610f2a565b60408051808303815f875af11580156104d6573d5f803e3d5ffd5b505050506040513d601f19601f820116820180604052508101906104fa9190610ff7565b915091508473ffffffffffffffffffffffffffffffffffffffff168273ffffffffffffffffffffffffffffffffffffffff1614610593576040517f08c379a000000000000000000000000000000000000000000000000000000000815260206004820152601960248201527f44657269766174697665204950204944206d69736d617463680000000000000060448201526064016102ee565b8281146105fc576040517f08c379a000000000000000000000000000000000000000000000000000000000815260206004820152601c60248201527f4465726976617469766520546f6b656e204944206d69736d617463680000000060448201526064016102ee565b6040517f02bf96a500000000000000000000000000000000000000000000000000000000815273ffffffffffffffffffffffffffffffffffffffff7f0000000000000000000000000000000000000000000000000000000000000000166004820152732e896b0b2fdb7457499b56aaaa4ae55bcb4cd31660248201527f000000000000000000000000000000000000000000000000000000000000000060448201526001606482015230608482015261010060a48201525f610104820181905260c4820181905260e482018190529194508491907304fbd8a2e56dd85cfd5500a4a4dfa955b9f1de6f906302bf96a590610124016020604051808303815f875af115801561070c573d5f803e3d5ffd5b505050506040513d601f19601f820116820180604052508101906107309190610e0c565b90507f000000000000000000000000000000000000000000000000000000000000000073ffffffffffffffffffffffffffffffffffffffff163073ffffffffffffffffffffffffffffffffffffffff167f7ea3956d8e6ca1595e5c6c18e6854e6bd9e5a50e3e740a94256adf2a2206981583896040516107d092919091825273ffffffffffffffffffffffffffffffffffffffff16602082015260400190565b60405180910390a36040805160018082528183019092525f916020808301908036833701905050905081815f8151811061080c5761080c611023565b60209081029190910101526040517f938b7b7a0000000000000000000000000000000000000000000000000000000081527304fbd8a2e56dd85cfd5500a4a4dfa955b9f1de6f9063938b7b7a9061086b908a9085905f90600401611050565b5f604051808303815f87803b158015610882575f80fd5b505af1158015610894573d5f803e3d5ffd5b50506040517f02bf96a500000000000000000000000000000000000000000000000000000000815273ffffffffffffffffffffffffffffffffffffffff8a81166004830152732e896b0b2fdb7457499b56aaaa4ae55bcb4cd31660248301527f00000000000000000000000000000000000000000000000000000000000000006044830152600160648301528c16608482015261010060a48201525f610104820181905260c4820181905260e4820181905292507304fbd8a2e56dd85cfd5500a4a4dfa955b9f1de6f91506302bf96a590610124016020604051808303815f875af1158015610985573d5f803e3d5ffd5b505050506040513d601f19601f820116820180604052508101906109a99190610e0c565b9050808873ffffffffffffffffffffffffffffffffffffffff168b73ffffffffffffffffffffffffffffffffffffffff167fcab7ab37e534c5fd508f47a1d63c8ad9337b7f56b709274d1ab4b2fdff1ba0bc60405160405180910390a45f546040517f23b872dd00000000000000000000000000000000000000000000000000000000815230600482015273ffffffffffffffffffffffffffffffffffffffff8c81166024830152604482018a9052909116906323b872dd906064015f604051808303815f87803b158015610a7c575f80fd5b505af1158015610a8e573d5f803e3d5ffd5b50505f546040517f6352211e000000000000000000000000000000000000000000000000000000008152600481018b905273ffffffffffffffffffffffffffffffffffffffff8e811694509091169150636352211e90602401602060405180830381865afa158015610b02573d5f803e3d5ffd5b505050506040513d601f19601f82011682018060405250810190610b269190610e61565b73ffffffffffffffffffffffffffffffffffffffff1614610bc9576040517f08c379a000000000000000000000000000000000000000000000000000000000815260206004820152602960248201527f526563697069656e74206973206e6f742074686520646572697661746976652060448201527f4e4654206f776e6572000000000000000000000000000000000000000000000060648201526084016102ee565b60405173ffffffffffffffffffffffffffffffffffffffff7f00000000000000000000000000000000000000000000000000000000000000008116825288918a8216918d16907f23660016e7889852bd98391fd1d50730fe84da1b492f3ec422e2cda509d58a859060200160405180910390a45050505050505b9250929050565b73ffffffffffffffffffffffffffffffffffffffff81168114610c6b575f80fd5b50565b5f8060408385031215610c7f575f80fd5b8235610c8a81610c4a565b9150602083013567ffffffffffffffff811115610ca5575f80fd5b830160808186031215610cb6575f80fd5b809150509250929050565b7f4e487b71000000000000000000000000000000000000000000000000000000005f52604160045260245ffd5b5f805f8060808587031215610d01575f80fd5b8435610d0c81610c4a565b93506020850135610d1c81610c4a565b925060408501359150606085013567ffffffffffffffff811115610d3e575f80fd5b8501601f81018713610d4e575f80fd5b803567ffffffffffffffff811115610d6857610d68610cc1565b6040517fffffffffffffffffffffffffffffffffffffffffffffffffffffffffffffffe0603f7fffffffffffffffffffffffffffffffffffffffffffffffffffffffffffffffe0601f8501160116810181811067ffffffffffffffff82111715610dd457610dd4610cc1565b604052818152828201602001891015610deb575f80fd5b816020840160208301375f6020838301015280935050505092959194509250565b5f60208284031215610e1c575f80fd5b5051919050565b80820180821115610e5b577f4e487b71000000000000000000000000000000000000000000000000000000005f52601160045260245ffd5b92915050565b5f60208284031215610e71575f80fd5b8151610e7c81610c4a565b9392505050565b5f8083357fffffffffffffffffffffffffffffffffffffffffffffffffffffffffffffffe1843603018112610eb6575f80fd5b830160208101925035905067ffffffffffffffff811115610ed5575f80fd5b803603821315610c43575f80fd5b81835281816020850137505f602082840101525f60207fffffffffffffffffffffffffffffffffffffffffffffffffffffffffffffffe0601f840116840101905092915050565b73ffffffffffffffffffffffffffffffffffffffff8516815273ffffffffffffffffffffffffffffffffffffffff84166020820152608060408201525f610f718485610e83565b608080850152610f8661010085018284610ee3565b602087013560a08601529150610fa190506040860186610e83565b7fffffffffffffffffffffffffffffffffffffffffffffffffffffffffffffff808584030160c0860152610fd6838284610ee3565b60609788013560e08701529515159490960193909352509195945050505050565b5f8060408385031215611008575f80fd5b825161101381610c4a565b6020939093015192949293505050565b7f4e487b71000000000000000000000000000000000000000000000000000000005f52603260045260245ffd5b5f6080820173ffffffffffffffffffffffffffffffffffffffff861683526080602084015280855180835260a0850191506020870192505f5b818110156110a7578351835260209384019390920191600101611089565b505083810360408501525f8152602081019250505063ffffffff8316606083015294935050505056fea2646970667358221220094c7481ae1665c6d4dc05ba549e4a999cabf47d63d6fc88353d3706120727ed64736f6c634300081a0033","linkReferences":{}},"methodIdentifiers":{"IP_ASSET_REGISTRY()":"41c782c5","REGISTRATION_WORKFLOWS()":"0e59bdd8","WIP()":"9ba879cf","currencyTokenForDerivativeFees()":"d9951c9f","derivativeSpgNft()":"b0a63f52","mintDerivativeAndRegisterIp(address,(string,bytes32,string,bytes32))":"0f25d6ad","onERC721Received(address,address,uint256,bytes)":"150b7a02","parentIpIdToDeriveFrom()":"c6ad2ea4","parentLicenseTermsId()":"a9e44efd"},"id":1}