{"abi":[{"type":"constructor","inputs":[{"name":"_recipient","type":"address","internalType":"address"},{"name":"_products","type":"tuple[]","internalType":"struct PaymentContract.Product[]","components":[{"name":"id","type":"uint256","internalType":"uint256"},{"name":"name","type":"string","internalType":"string"},{"name":"price","type":"uint256","internalType":"uint256"},{"name":"active","type":"bool","internalType":"bool"},{"name":"token","type":"address","internalType":"address"}]}],"stateMutability":"nonpayable"},{"type":"receive","stateMutability":"payable"},{"type":"function","name":"getBalance","inputs":[],"outputs":[{"name":"","type":"uint256","internalType":"uint256"}],"stateMutability":"view"},{"type":"function","name":"getProduct","inputs":[{"name":"_productId","type":"uint256","internalType":"uint256"}],"outputs":[{"name":"","type":"tuple","internalType":"struct PaymentContract.Product","components":[{"name":"id","type":"uint256","internalType":"uint256"},{"name":"name","type":"string","internalType":"string"},{"name":"price","type":"uint256","internalType":"uint256"},{"name":"active","type":"bool","internalType":"bool"},{"name":"token","type":"address","internalType":"address"}]}],"stateMutability":"view"},{"type":"function","name":"owner","inputs":[],"outputs":[{"name":"","type":"address","internalType":"address"}],"stateMutability":"view"},{"type":"function","name":"products","inputs":[{"name":"","type":"uint256","internalType":"uint256"}],"outputs":[{"name":"id","type":"uint256","internalType":"uint256"},{"name":"name","type":"string","internalType":"string"},{"name":"price","type":"uint256","internalType":"uint256"},{"name":"active","type":"bool","internalType":"bool"},{"name":"token","type":"address","internalType":"address"}],"stateMutability":"view"},{"type":"function","name":"purchase","inputs":[{"name":"_productId","type":"uint256","internalType":"uint256"}],"outputs":[],"stateMutability":"payable"},{"type":"function","name":"recipient","inputs":[],"outputs":[{"name":"","type":"address","internalType":"address"}],"stateMutability":"view"},{"type":"function","name":"setProducts","inputs":[{"name":"_products","type":"tuple[]","internalType":"struct PaymentContract.Product[]","components":[{"name":"id","type":"uint256","internalType":"uint256"},{"name":"name","type":"string","internalType":"string"},{"name":"price","type":"uint256","internalType":"uint256"},{"name":"active","type":"bool","internalType":"bool"},{"name":"token","type":"address","internalType":"address"}]}],"outputs":[],"stateMutability":"nonpayable"},{"type":"function","name":"withdraw","inputs":[],"outputs":[],"stateMutability":"nonpayable"},{"type":"function","name":"withdrawToken","inputs":[{"name":"token","type":"address","internalType":"address"},{"name":"amount","type":"uint256","internalType":"uint256"}],"outputs":[],"stateMutability":"nonpayable"},{"type":"event","name":"FundsWithdrawn","inputs":[{"name":"owner","type":"address","indexed":true,"internalType":"address"},{"name":"amount","type":"uint256","indexed":false,"internalType":"uint256"}],"anonymous":false},{"type":"event","name":"ProductPurchased","inputs":[{"name":"buyer","type":"address","indexed":true,"internalType":"address"},{"name":"productId","type":"uint256","indexed":true,"internalType":"uint256"},{"name":"productName","type":"string","indexed":true,"internalType":"string"},{"name":"price","type":"uint256","indexed":false,"internalType":"uint256"},{"name":"token","type":"address","indexed":false,"internalType":"address"},{"name":"timestamp","type":"uint256","indexed":false,"internalType":"uint256"}],"anonymous":false}],"bytecode":{"object":"0x608060405234801561000f575f80fd5b5060405161175d38038061175d83398101604081905261002e916101b7565b5f8054336001600160a01b0319918216178255600180549091166001600160a01b0385161790555b81518110156101195781818151811061007157610071610359565b602002602001015160025f84848151811061008e5761008e610359565b60200260200101515f015181526020019081526020015f205f820151815f015560208201518160010190816100c391906103f1565b50604082015160028201556060820151600390910180546080909301516001600160a01b031661010002610100600160a81b0319921515929092166001600160a81b031990931692909217179055600101610056565b5050506104ab565b80516001600160a01b0381168114610137575f80fd5b919050565b634e487b7160e01b5f52604160045260245ffd5b60405160a081016001600160401b03811182821017156101725761017261013c565b60405290565b604051601f8201601f191681016001600160401b03811182821017156101a0576101a061013c565b604052919050565b80518015158114610137575f80fd5b5f80604083850312156101c8575f80fd5b6101d183610121565b60208401519092506001600160401b038111156101ec575f80fd5b8301601f810185136101fc575f80fd5b80516001600160401b038111156102155761021561013c565b8060051b61022560208201610178565b91825260208184018101929081019088841115610240575f80fd5b6020850192505b8383101561034a5782516001600160401b03811115610264575f80fd5b850160a0818b03601f19011215610279575f80fd5b610281610150565b6020820151815260408201516001600160401b038111156102a0575f80fd5b82016020810190603f018c136102b4575f80fd5b80516001600160401b038111156102cd576102cd61013c565b6102e0601f8201601f1916602001610178565b8181528d60208385010111156102f4575f80fd5b8160208401602083015e5f6020928201830152908301525060608201516040820152610322608083016101a8565b606082015261033360a08301610121565b608082015283525060209283019290910190610247565b80955050505050509250929050565b634e487b7160e01b5f52603260045260245ffd5b600181811c9082168061038157607f821691505b60208210810361039f57634e487b7160e01b5f52602260045260245ffd5b50919050565b601f8211156103ec57805f5260205f20601f840160051c810160208510156103ca5750805b601f840160051c820191505b818110156103e9575f81556001016103d6565b50505b505050565b81516001600160401b0381111561040a5761040a61013c565b61041e81610418845461036d565b846103a5565b6020601f821160018114610450575f83156104395750848201515b5f19600385901b1c1916600184901b1784556103e9565b5f84815260208120601f198516915b8281101561047f578785015182556020948501946001909201910161045f565b508482101561049c57868401515f19600387901b60f8161c191681555b50505050600190811b01905550565b6112a5806104b85f395ff3fe608060405260043610610096575f3560e01c80638da5cb5b11610066578063b9db15b41161004c578063b9db15b4146101a1578063da7432c1146101cd578063efef39a1146101ec575f80fd5b80638da5cb5b146101575780639e281a9814610182575f80fd5b806312065fe0146100a15780633ccfd60b146100c057806366d003ac146100d65780637acc0b2014610127575f80fd5b3661009d57005b5f80fd5b3480156100ac575f80fd5b506040514781526020015b60405180910390f35b3480156100cb575f80fd5b506100d46101ff565b005b3480156100e1575f80fd5b506001546101029073ffffffffffffffffffffffffffffffffffffffff1681565b60405173ffffffffffffffffffffffffffffffffffffffff90911681526020016100b7565b348015610132575f80fd5b50610146610141366004610c63565b6103a7565b6040516100b7959493929190610cc6565b348015610162575f80fd5b505f546101029073ffffffffffffffffffffffffffffffffffffffff1681565b34801561018d575f80fd5b506100d461019c366004610d39565b610475565b3480156101ac575f80fd5b506101c06101bb366004610c63565b6105ba565b6040516100b79190610d61565b3480156101d8575f80fd5b506100d46101e7366004610e88565b6106f6565b6100d46101fa366004610c63565b6108a1565b5f5473ffffffffffffffffffffffffffffffffffffffff1633146102aa576040517f08c379a000000000000000000000000000000000000000000000000000000000815260206004820152602160248201527f4f6e6c79206f776e65722063616e2063616c6c20746869732066756e6374696f60448201527f6e0000000000000000000000000000000000000000000000000000000000000060648201526084015b60405180910390fd5b4780610312576040517f08c379a000000000000000000000000000000000000000000000000000000000815260206004820152601460248201527f4e6f2066756e647320746f20776974686472617700000000000000000000000060448201526064016102a1565b5f805460405173ffffffffffffffffffffffffffffffffffffffff9091169183156108fc02918491818181858888f19350505050158015610355573d5f803e3d5ffd5b505f5460405182815273ffffffffffffffffffffffffffffffffffffffff909116907feaff4b37086828766ad3268786972c0cd24259d4c87a80f9d3963a3c3d999b0d9060200160405180910390a250565b60026020525f9081526040902080546001820180549192916103c890611057565b80601f01602080910402602001604051908101604052809291908181526020018280546103f490611057565b801561043f5780601f106104165761010080835404028352916020019161043f565b820191905f5260205f20905b81548152906001019060200180831161042257829003601f168201915b50505050600283015460039093015491929160ff81169150610100900473ffffffffffffffffffffffffffffffffffffffff1685565b5f5473ffffffffffffffffffffffffffffffffffffffff16331461051b576040517f08c379a000000000000000000000000000000000000000000000000000000000815260206004820152602160248201527f4f6e6c79206f776e65722063616e2063616c6c20746869732066756e6374696f60448201527f6e0000000000000000000000000000000000000000000000000000000000000060648201526084016102a1565b6001546040517fa9059cbb00000000000000000000000000000000000000000000000000000000815273ffffffffffffffffffffffffffffffffffffffff9182166004820152602481018390529083169063a9059cbb906044016020604051808303815f875af1158015610591573d5f803e3d5ffd5b505050506040513d601f19601f820116820180604052508101906105b591906110a8565b505050565b6106006040518060a001604052805f8152602001606081526020015f81526020015f151581526020015f73ffffffffffffffffffffffffffffffffffffffff1681525090565b60025f8381526020019081526020015f206040518060a00160405290815f820154815260200160018201805461063590611057565b80601f016020809104026020016040519081016040528092919081815260200182805461066190611057565b80156106ac5780601f10610683576101008083540402835291602001916106ac565b820191905f5260205f20905b81548152906001019060200180831161068f57829003601f168201915b50505091835250506002820154602082015260039091015460ff811615156040830152610100900473ffffffffffffffffffffffffffffffffffffffff1660609091015292915050565b5f5473ffffffffffffffffffffffffffffffffffffffff16331461079c576040517f08c379a000000000000000000000000000000000000000000000000000000000815260206004820152602160248201527f4f6e6c79206f776e65722063616e2063616c6c20746869732066756e6374696f60448201527f6e0000000000000000000000000000000000000000000000000000000000000060648201526084016102a1565b5f5b815181101561089d578181815181106107b9576107b96110ca565b602002602001015160025f8484815181106107d6576107d66110ca565b60200260200101515f015181526020019081526020015f205f820151815f0155602082015181600101908161080b9190611142565b506040820151600282015560608201516003909101805460809093015173ffffffffffffffffffffffffffffffffffffffff16610100027fffffffffffffffffffffff0000000000000000000000000000000000000000ff921515929092167fffffffffffffffffffffff0000000000000000000000000000000000000000009093169290921717905560010161079e565b5050565b5f60025f8381526020019081526020015f206040518060a00160405290815f82015481526020016001820180546108d790611057565b80601f016020809104026020016040519081016040528092919081815260200182805461090390611057565b801561094e5780601f106109255761010080835404028352916020019161094e565b820191905f5260205f20905b81548152906001019060200180831161093157829003601f168201915b50505091835250506002820154602082015260039091015460ff811615156040830152610100900473ffffffffffffffffffffffffffffffffffffffff166060918201528101519091506109fe576040517f08c379a000000000000000000000000000000000000000000000000000000000815260206004820152601260248201527f50726f64756374206e6f7420616374697665000000000000000000000000000060448201526064016102a1565b608081015173ffffffffffffffffffffffffffffffffffffffff16610ad4578060400151341015610a8b576040517f08c379a000000000000000000000000000000000000000000000000000000000815260206004820152601760248201527f496e73756666696369656e7420746f6b656e2073656e7400000000000000000060448201526064016102a1565b60015460405173ffffffffffffffffffffffffffffffffffffffff909116903480156108fc02915f818181858888f19350505050158015610ace573d5f803e3d5ffd5b50610be4565b608081015160015460408084015190517f23b872dd00000000000000000000000000000000000000000000000000000000815233600482015273ffffffffffffffffffffffffffffffffffffffff928316602482015260448101919091529116906323b872dd906064016020604051808303815f875af1158015610b5a573d5f803e3d5ffd5b505050506040513d601f19601f82011682018060405250810190610b7e91906110a8565b610be4576040517f08c379a000000000000000000000000000000000000000000000000000000000815260206004820152600f60248201527f5472616e73666572206661696c6564000000000000000000000000000000000060448201526064016102a1565b8060200151604051610bf69190611259565b6040805191829003822083820151608085015190845273ffffffffffffffffffffffffffffffffffffffff166020840152428383015290519091849133917f1c0d06030d8a37d9e88d38498de43938ed5f1a508a8c53405dd43196a8b94732919081900360600190a45050565b5f60208284031215610c73575f80fd5b5035919050565b5f81518084528060208401602086015e5f6020828601015260207fffffffffffffffffffffffffffffffffffffffffffffffffffffffffffffffe0601f83011685010191505092915050565b85815260a060208201525f610cde60a0830187610c7a565b604083019590955250911515606083015273ffffffffffffffffffffffffffffffffffffffff1660809091015292915050565b803573ffffffffffffffffffffffffffffffffffffffff81168114610d34575f80fd5b919050565b5f8060408385031215610d4a575f80fd5b610d5383610d11565b946020939093013593505050565b60208152815160208201525f602083015160a06040840152610d8660c0840182610c7a565b90506040840151606084015260608401511515608084015273ffffffffffffffffffffffffffffffffffffffff60808501511660a08401528091505092915050565b7f4e487b71000000000000000000000000000000000000000000000000000000005f52604160045260245ffd5b60405160a0810167ffffffffffffffff81118282101715610e1857610e18610dc8565b60405290565b604051601f82017fffffffffffffffffffffffffffffffffffffffffffffffffffffffffffffffe016810167ffffffffffffffff81118282101715610e6557610e65610dc8565b604052919050565b8015158114610e7a575f80fd5b50565b8035610d3481610e6d565b5f60208284031215610e98575f80fd5b813567ffffffffffffffff811115610eae575f80fd5b8201601f81018413610ebe575f80fd5b803567ffffffffffffffff811115610ed857610ed8610dc8565b8060051b610ee860208201610e1e565b91825260208184018101929081019087841115610f03575f80fd5b6020850192505b8383101561104c57823567ffffffffffffffff811115610f28575f80fd5b850160a0818a037fffffffffffffffffffffffffffffffffffffffffffffffffffffffffffffffe0011215610f5b575f80fd5b610f63610df5565b60208201358152604082013567ffffffffffffffff811115610f83575f80fd5b82016020810190603f018b13610f97575f80fd5b803567ffffffffffffffff811115610fb157610fb1610dc8565b610fe260207fffffffffffffffffffffffffffffffffffffffffffffffffffffffffffffffe0601f84011601610e1e565b8181528c6020838501011115610ff6575f80fd5b816020840160208301375f602092820183015290830152506060820135604082015261102460808301610e7d565b606082015261103560a08301610d11565b608082015283525060209283019290910190610f0a565b979650505050505050565b600181811c9082168061106b57607f821691505b6020821081036110a2577f4e487b71000000000000000000000000000000000000000000000000000000005f52602260045260245ffd5b50919050565b5f602082840312156110b8575f80fd5b81516110c381610e6d565b9392505050565b7f4e487b71000000000000000000000000000000000000000000000000000000005f52603260045260245ffd5b601f8211156105b557805f5260205f20601f840160051c8101602085101561111c5750805b601f840160051c820191505b8181101561113b575f8155600101611128565b5050505050565b815167ffffffffffffffff81111561115c5761115c610dc8565b6111708161116a8454611057565b846110f7565b6020601f8211600181146111c1575f831561118b5750848201515b7fffffffffffffffffffffffffffffffffffffffffffffffffffffffffffffffff600385901b1c1916600184901b17845561113b565b5f848152602081207fffffffffffffffffffffffffffffffffffffffffffffffffffffffffffffffe08516915b8281101561120e57878501518255602094850194600190920191016111ee565b508482101561124a57868401517fffffffffffffffffffffffffffffffffffffffffffffffffffffffffffffffff600387901b60f8161c191681555b50505050600190811b01905550565b5f82518060208501845e5f92019182525091905056fea2646970667358221220b224f01edee84556b1f4d782a41d3f24f8cd215c8aa8c48e9d6708d56aa0094c64736f6c634300081a0033","linkReferences":{}},"methodIdentifiers":{"getBalance()":"12065fe0","getProduct(uint256)":"b9db15b4","owner()":"8da5cb5b","products(uint256)":"7acc0b20","purchase(uint256)":"efef39a1","recipient()":"66d003ac","setProducts((uint256,string,uint256,bool,address)[])":"da7432c1","withdraw()":"3ccfd60b","withdrawToken(address,uint256)":"9e281a98"},"id":3}