{"abi":[{"type":"constructor","inputs":[],"stateMutability":"nonpayable"},{"type":"function","name":"IP_ASSET_REGISTRY","inputs":[],"outputs":[{"name":"","type":"address","internalType":"contract IIPAssetRegistry"}],"stateMutability":"view"},{"type":"function","name":"REGISTRATION_WORKFLOWS","inputs":[],"outputs":[{"name":"","type":"address","internalType":"contract IRegistrationWorkflows"}],"stateMutability":"view"},{"type":"function","name":"WIP","inputs":[],"outputs":[{"name":"","type":"address","internalType":"address"}],"stateMutability":"view"},{"type":"function","name":"attachLicenseTerms","inputs":[{"name":"ipId","type":"address","internalType":"address"}],"outputs":[],"stateMutability":"nonpayable"},{"type":"function","name":"mintAndRegisterFor","inputs":[{"name":"recipient","type":"address","internalType":"address"}],"outputs":[{"name":"ipId","type":"address","internalType":"address"},{"name":"tokenId","type":"uint256","internalType":"uint256"}],"stateMutability":"nonpayable"},{"type":"function","name":"mintLicenseToken","inputs":[{"name":"ipId","type":"address","internalType":"address"},{"name":"licenseTermsId","type":"uint256","internalType":"uint256"},{"name":"amount","type":"uint256","internalType":"uint256"}],"outputs":[{"name":"startTokenId","type":"uint256","internalType":"uint256"}],"stateMutability":"nonpayable"},{"type":"function","name":"onERC721Received","inputs":[{"name":"","type":"address","internalType":"address"},{"name":"","type":"address","internalType":"address"},{"name":"","type":"uint256","internalType":"uint256"},{"name":"","type":"bytes","internalType":"bytes"}],"outputs":[{"name":"","type":"bytes4","internalType":"bytes4"}],"stateMutability":"nonpayable"},{"type":"function","name":"spgNft","inputs":[],"outputs":[{"name":"","type":"address","internalType":"contract ISPGNFT"}],"stateMutability":"view"},{"type":"event","name":"IpAssetMinted","inputs":[{"name":"recipient","type":"address","indexed":true,"internalType":"address"},{"name":"ipId","type":"address","indexed":true,"internalType":"address"},{"name":"tokenId","type":"uint256","indexed":true,"internalType":"uint256"}],"anonymous":false},{"type":"event","name":"LicenseTermsAttached","inputs":[{"name":"ipId","type":"address","indexed":true,"internalType":"address"},{"name":"licenseTemplate","type":"address","indexed":true,"internalType":"address"},{"name":"licenseTermsId","type":"uint256","indexed":false,"internalType":"uint256"}],"anonymous":false},{"type":"event","name":"LicenseTokenMinted","inputs":[{"name":"to","type":"address","indexed":true,"internalType":"address"},{"name":"ipId","type":"address","indexed":false,"internalType":"address"},{"name":"startTokenId","type":"uint256","indexed":false,"internalType":"uint256"},{"name":"amount","type":"uint256","indexed":false,"internalType":"uint256"}],"anonymous":false}],"bytecode":{"object":"0x60a060405261054560921b608052600180546001600160a01b03191673fe3838bfb30b34170f00030b52ea4893d8aac6bc17905534801561003e575f80fd5b50604080516101a081018252601661016082019081527f534f4c4f2041564154415220436f6c6c656374696f6e00000000000000000000610180830152815281518083018352600b81526a29a7a627afa0ab20aa20a960a91b60208281019190915280830191909152825180820184525f8082528385019190915283519182018452808252606083019190915261271060808084019190915260a08301829052516001600160a01b031660c08301523060e083018190526101008301526001610120830152610140820152905163e80fe52f60e01b815273be39e1c756e921bd25df86e7aaa31106d1eb04249163e80fe52f9161013e91906004016101d0565b6020604051808303815f875af115801561015a573d5f803e3d5ffd5b505050506040513d601f19601f8201168201806040525081019061017e91906102da565b5f80546001600160a01b0319166001600160a01b0392909216919091179055610307565b5f81518084528060208401602086015e5f602082860101526020601f19601f83011685010191505092915050565b602081525f825161016060208401526101ed6101808401826101a2565b90506020840151601f1984830301604085015261020a82826101a2565b9150506040840151601f1984830301606085015261022882826101a2565b9150506060840151601f1984830301608085015261024682826101a2565b915050608084015161026060a085018263ffffffff169052565b5060a084015160c084015260c084015161028560e08501826001600160a01b03169052565b5060e08401516001600160a01b038116610100850152506101008401516001600160a01b0381166101208501525061012084015180151561014085015250610140840151801515610160850152509392505050565b5f602082840312156102ea575f80fd5b81516001600160a01b0381168114610300575f80fd5b9392505050565b6080516115806103265f395f8181610196015261078701526115805ff3fe608060405234801561000f575f80fd5b5060043610610085575f3560e01c80636e270286116100585780636e270286146101705780639ba879cf14610191578063dae8bd37146101b8578063fd708326146101f7575f80fd5b806301a502c4146100895780630e59bdd8146100d2578063150b7a02146100ed57806341c782c514610155575b5f80fd5b5f546100a89073ffffffffffffffffffffffffffffffffffffffff1681565b60405173ffffffffffffffffffffffffffffffffffffffff90911681526020015b60405180910390f35b6100a873be39e1c756e921bd25df86e7aaa31106d1eb042481565b6101246100fb366004610fa9565b7f150b7a0200000000000000000000000000000000000000000000000000000000949350505050565b6040517fffffffff0000000000000000000000000000000000000000000000000000000090911681526020016100c9565b6100a87377319b4031e6ef1250907aa00018b8b1c67a244b81565b61018361017e3660046110c7565b61020c565b6040519081526020016100c9565b6100a87f000000000000000000000000000000000000000000000000000000000000000081565b6101cb6101c63660046110f9565b6103cb565b6040805173ffffffffffffffffffffffffffffffffffffffff90931683526020830191909152016100c9565b61020a6102053660046110f9565b610c1e565b005b5f80821161027b576040517f08c379a000000000000000000000000000000000000000000000000000000000815260206004820152601260248201527f416d6f756e74206d757374206265203e2030000000000000000000000000000060448201526064015b60405180910390fd5b6040517f02bf96a500000000000000000000000000000000000000000000000000000000815273ffffffffffffffffffffffffffffffffffffffff85166004820152732e896b0b2fdb7457499b56aaaa4ae55bcb4cd3166024820152604481018490526064810183905233608482015261010060a48201525f610104820181905260c4820181905260e48201527304fbd8a2e56dd85cfd5500a4a4dfa955b9f1de6f906302bf96a590610124016020604051808303815f875af1158015610344573d5f803e3d5ffd5b505050506040513d601f19601f82011682018060405250810190610368919061111b565b6040805173ffffffffffffffffffffffffffffffffffffffff871681526020810183905290810184905290915033907f1f66324fa4483d25b7b2ff27fdc4a62c822cde7a66a49e2daaeaabb69f4e48349060600160405180910390a29392505050565b5f805f805f9054906101000a900473ffffffffffffffffffffffffffffffffffffffff1673ffffffffffffffffffffffffffffffffffffffff166318160ddd6040518163ffffffff1660e01b8152600401602060405180830381865afa158015610437573d5f803e3d5ffd5b505050506040513d601f19601f8201168201806040525081019061045b919061111b565b610466906001611132565b5f546040517fd26bb83f00000000000000000000000000000000000000000000000000000000815246600482015273ffffffffffffffffffffffffffffffffffffffff9091166024820152604481018290529091507377319b4031e6ef1250907aa00018b8b1c67a244b9063d26bb83f90606401602060405180830381865afa1580156104f5573d5f803e3d5ffd5b505050506040513d601f19601f820116820180604052508101906105199190611170565b92505f8073be39e1c756e921bd25df86e7aaa31106d1eb042473ffffffffffffffffffffffffffffffffffffffff1663f1c42a225f8054906101000a900473ffffffffffffffffffffffffffffffffffffffff1630604051806080016040528060405180608001604052806043815260200161144b604391398152602001604051602001610616907f7b277469746c65273a27534f4e41272c276465736372697074696f6e273a275381527f4f4e41272c27637265617465644174273a27272c2763726561746f7273273a5b60208201527f5d7d000000000000000000000000000000000000000000000000000000000000604082015260420190565b6040516020818303038152906040528051906020012081526020016040518060800160405280604381526020016115086043913981526020016040516020016106ce907f7b276e616d65273a27534f4e41272c276465736372697074696f6e273a27534f81527f4e41272c27696d616765273a2768747470733a2f2f70696373756d2e70686f7460208201527f6f732f323030277d000000000000000000000000000000000000000000000000604082015260480190565b6040516020818303038152906040528051906020012081525060016040518563ffffffff1660e01b815260040161070894939291906111d7565b60408051808303815f875af1158015610723573d5f803e3d5ffd5b505050506040513d601f19601f82011682018060405250810190610747919061128f565b90925090505f732e896b0b2fdb7457499b56aaaa4ae55bcb4cd316636e1b8d906107ab836301312d0073be54fb168b3c982b7aae60db6cf75bd8447b390e7f0000000000000000000000000000000000000000000000000000000000000000610d35565b6040518263ffffffff1660e01b81526004016107c791906112bb565b6020604051808303815f875af11580156107e3573d5f803e3d5ffd5b505050506040513d601f19601f82011682018060405250810190610807919061111b565b6040517f2a4130c000000000000000000000000000000000000000000000000000000000815273ffffffffffffffffffffffffffffffffffffffff88166004820152732e896b0b2fdb7457499b56aaaa4ae55bcb4cd3166024820152604481018290529091507304fbd8a2e56dd85cfd5500a4a4dfa955b9f1de6f90632a4130c0906064015f604051808303815f87803b1580156108a3575f80fd5b505af11580156108b5573d5f803e3d5ffd5b5050604051838152732e896b0b2fdb7457499b56aaaa4ae55bcb4cd316925073ffffffffffffffffffffffffffffffffffffffff891691507f306b09abb46463ff9ea9973444a427c4408695fca709f5bddf06da95fee668959060200160405180910390a38573ffffffffffffffffffffffffffffffffffffffff168373ffffffffffffffffffffffffffffffffffffffff16146109af576040517f08c379a000000000000000000000000000000000000000000000000000000000815260206004820152600e60248201527f4950204944206d69736d617463680000000000000000000000000000000000006044820152606401610272565b838214610a18576040517f08c379a000000000000000000000000000000000000000000000000000000000815260206004820152601160248201527f546f6b656e204944206d69736d617463680000000000000000000000000000006044820152606401610272565b5f546040517f23b872dd00000000000000000000000000000000000000000000000000000000815230600482015273ffffffffffffffffffffffffffffffffffffffff8981166024830152604482018590529396508693909116906323b872dd906064015f604051808303815f87803b158015610a93575f80fd5b505af1158015610aa5573d5f803e3d5ffd5b50505f546040517f6352211e0000000000000000000000000000000000000000000000000000000081526004810186905273ffffffffffffffffffffffffffffffffffffffff8b811694509091169150636352211e90602401602060405180830381865afa158015610b19573d5f803e3d5ffd5b505050506040513d601f19601f82011682018060405250810190610b3d9190611170565b73ffffffffffffffffffffffffffffffffffffffff1614610bba576040517f08c379a000000000000000000000000000000000000000000000000000000000815260206004820152601e60248201527f526563697069656e74206973206e6f7420746865204e4654206f776e657200006044820152606401610272565b848673ffffffffffffffffffffffffffffffffffffffff168873ffffffffffffffffffffffffffffffffffffffff167fab6c561c7948a7497e24129ffc5bd7202f642a8d9e3b606d8754c6465bcdc1f360405160405180910390a450505050915091565b6040517f2a4130c000000000000000000000000000000000000000000000000000000000815273ffffffffffffffffffffffffffffffffffffffff82166004820152732e896b0b2fdb7457499b56aaaa4ae55bcb4cd3166024820152600160448201819052907304fbd8a2e56dd85cfd5500a4a4dfa955b9f1de6f90632a4130c0906064015f604051808303815f87803b158015610cba575f80fd5b505af1158015610ccc573d5f803e3d5ffd5b5050604051838152732e896b0b2fdb7457499b56aaaa4ae55bcb4cd316925073ffffffffffffffffffffffffffffffffffffffff851691507f306b09abb46463ff9ea9973444a427c4408695fca709f5bddf06da95fee668959060200160405180910390a35050565b60408051610220810182525f8082526020820181905291810182905260608082018390526080820183905260a0820183905260c0820183905260e08201819052610100820183905261012082018390526101408201839052610160820183905261018082018390526101a082018390526101c082018390526101e0820192909252610200810191909152610dcb85858585610dd4565b95945050505050565b60408051610220810182525f8082526020820181905291810182905260608082018390526080820183905260a0820183905260c0820183905260e08201819052610100820183905261012082018390526101408201839052610160820183905261018082018390526101a082018390526101c082018390526101e08201929092526102008101919091526040518061022001604052806001151581526020018473ffffffffffffffffffffffffffffffffffffffff1681526020018681526020015f81526020016001151581526020016001151581526020015f73ffffffffffffffffffffffffffffffffffffffff16815260200160405180602001604052805f81525081526020018563ffffffff1681526020015f81526020016001151581526020016001151581526020015f151581526020016001151581526020015f81526020018373ffffffffffffffffffffffffffffffffffffffff1681526020016040518060a00160405280607a815260200161148e607a9139905295945050505050565b73ffffffffffffffffffffffffffffffffffffffff81168114610f79575f80fd5b50565b7f4e487b71000000000000000000000000000000000000000000000000000000005f52604160045260245ffd5b5f805f8060808587031215610fbc575f80fd5b8435610fc781610f58565b93506020850135610fd781610f58565b925060408501359150606085013567ffffffffffffffff811115610ff9575f80fd5b8501601f81018713611009575f80fd5b803567ffffffffffffffff81111561102357611023610f7c565b6040517fffffffffffffffffffffffffffffffffffffffffffffffffffffffffffffffe0603f7fffffffffffffffffffffffffffffffffffffffffffffffffffffffffffffffe0601f8501160116810181811067ffffffffffffffff8211171561108f5761108f610f7c565b6040528181528282016020018910156110a6575f80fd5b816020840160208301375f6020838301015280935050505092959194509250565b5f805f606084860312156110d9575f80fd5b83356110e481610f58565b95602085013595506040909401359392505050565b5f60208284031215611109575f80fd5b813561111481610f58565b9392505050565b5f6020828403121561112b575f80fd5b5051919050565b8082018082111561116a577f4e487b71000000000000000000000000000000000000000000000000000000005f52601160045260245ffd5b92915050565b5f60208284031215611180575f80fd5b815161111481610f58565b5f81518084528060208401602086015e5f6020828601015260207fffffffffffffffffffffffffffffffffffffffffffffffffffffffffffffffe0601f83011685010191505092915050565b73ffffffffffffffffffffffffffffffffffffffff8516815273ffffffffffffffffffffffffffffffffffffffff84166020820152608060408201525f835160808084015261122a61010084018261118b565b9050602085015160a084015260408501517fffffffffffffffffffffffffffffffffffffffffffffffffffffffffffffff808483030160c085015261126f828261118b565b60609687015160e086015294151593909501929092525090949350505050565b5f80604083850312156112a0575f80fd5b82516112ab81610f58565b6020939093015192949293505050565b602081526112ce60208201835115159052565b5f60208301516112f6604084018273ffffffffffffffffffffffffffffffffffffffff169052565b506040830151606083015260608301516080830152608083015161131e60a084018215159052565b5060a083015180151560c08401525060c083015173ffffffffffffffffffffffffffffffffffffffff811660e08401525060e083015161022061010084015261136b61024084018261118b565b905061010084015161138661012085018263ffffffff169052565b506101208401516101408401526101408401516113a861016085018215159052565b50610160840151801515610180850152506101808401518015156101a0850152506101a08401518015156101c0850152506101c08401516101e08401526101e084015161140e61020085018273ffffffffffffffffffffffffffffffffffffffff169052565b506102008401517fffffffffffffffffffffffffffffffffffffffffffffffffffffffffffffffe084830301610220850152610dcb828261118b56fe68747470733a2f2f697066732e696f2f697066732f516d5a486651644641326362334153646d654753354b36725a6a7a36356f73556464594d5552447832316254373368747470733a2f2f6769746875622e636f6d2f7069706c6162732f70696c2d646f63756d656e742f626c6f622f616436376262363332613331306432353537663861626363636434323865346339633739386462312f6f66662d636861696e2d7465726d732f436f6d6d65726369616c52656d69782e6a736f6e68747470733a2f2f697066732e696f2f697066732f516d524c3550634b36364a316d6274545a5377316e7756717247787439386f6e537478364c676548544462456579a2646970667358221220c073b575b1ad7df808fa77bb39f02d12119a04975bd97ecbb838fbad1e4858de64736f6c634300081a0033","linkReferences":{}},"methodIdentifiers":{"IP_ASSET_REGISTRY()":"41c782c5","REGISTRATION_WORKFLOWS()":"0e59bdd8","WIP()":"9ba879cf","attachLicenseTerms(address)":"fd708326","mintAndRegisterFor(address)":"dae8bd37","mintLicenseToken(address,uint256,uint256)":"6e270286","onERC721Received(address,address,uint256,bytes)":"150b7a02","spgNft()":"01a502c4"},"id":2}